:020000040000fa
:080000000001040000000000f3
:020000040000fa
:0400080010020000e2
:020000040000fa
:04000c00520200009c
:020000040000fa
:040010009202000058
:020000040000fa
:0400140030020000b6
:020000040000fa
:040018007202000070
:020000040000fa
:04001c00aa03000033
:020000040000fa
:04002000b202000028
:020000040000fa
:04002400aa0300002b
:020000040000fa
:04002800aa03000027
:020000040000fa
:04002c00aa03000023
:020000040000fa
:04003000aa0300001f
:020000040000fa
:04003400aa0300001b
:020000040000fa
:04003800aa03000017
:020000040000fa
:04003c00aa03000013
:020000040000fa
:04004000aa0300000f
:020000040000fa
:04004400aa0300000b
:020000040000fa
:04004800aa03000007
:020000040000fa
:04004c00aa03000003
:020000040000fa
:04005000aa030000ff
:020000040000fa
:04005400aa030000fb
:020000040000fa
:04005800aa030000f7
:020000040000fa
:04005c00aa030000f3
:020000040000fa
:04006000aa030000ef
:020000040000fa
:04006400aa030000eb
:020000040000fa
:04006800aa030000e7
:020000040000fa
:04006c00aa030000e3
:020000040000fa
:04007000aa030000df
:020000040000fa
:04007400aa030000db
:020000040000fa
:04007800aa030000d7
:020000040000fa
:04007c00aa030000d3
:020000040000fa
:04008000aa030000cf
:020000040000fa
:04008400aa030000cb
:020000040000fa
:04008800aa030000c7
:020000040000fa
:04008c00aa030000c3
:020000040000fa
:04009000aa030000bf
:020000040000fa
:04009400aa030000bb
:020000040000fa
:04009800aa030000b7
:020000040000fa
:04009c00aa030000b3
:020000040000fa
:0400a0002e0300002b
:020000040000fa
:0400a400d202000084
:020000040000fa
:0400a800aa030000a7
:020000040000fa
:0400ac00aa030000a3
:020000040000fa
:0400b000aa0300009f
:020000040000fa
:0400b400aa0300009b
:020000040000fa
:0400b800aa03000097
:020000040000fa
:0400bc00aa03000093
:020000040000fa
:0400c000aa0300008f
:020000040000fa
:0400c400aa0300008b
:020000040000fa
:0400c800aa03000087
:020000040000fa
:0400cc00aa03000083
:020000040000fa
:0400d000aa0300007f
:020000040000fa
:0400d400aa0300007b
:020000040000fa
:0400d800aa03000077
:020000040000fa
:0400dc00aa03000073
:020000040000fa
:0400e000aa0300006f
:020000040000fa
:0400e400aa0300006b
:020000040000fa
:0400e800aa03000067
:020000040000fa
:0400ec00aa03000063
:020000040000fa
:0400f000aa0300005f
:020000040000fa
:0400f400aa0300005b
:020000040000fa
:0400f800aa03000057
:020000040000fa
:0400fc00aa03000053
:020000040000fa
:04010000aa0300004e
:020000040000fa
:04010400aa0300004a
:020000040000fa
:04010800aa03000046
:020000040000fa
:04010c00aa03000042
:020000040000fa
:04011000aa0300003e
:020000040000fa
:04011400aa0300003a
:020000040000fa
:04011800aa03000036
:020000040000fa
:04011c00aa03000032
:020000040000fa
:04012000aa0300002e
:020000040000fa
:04012400aa0300002a
:020000040000fa
:04012800aa03000026
:020000040000fa
:04012c00aa03000022
:020000040000fa
:040130009403000034
:020000040000fa
:04013400aa0300001a
:020000040000fa
:04013800aa03000016
:020000040000fa
:04013c00aa03000012
:020000040000fa
:04014000aa0300000e
:020000040000fa
:04014400aa0300000a
:020000040000fa
:04014800aa03000006
:020000040000fa
:04014c00aa03000002
:020000040000fa
:04015000aa030000fe
:020000040000fa
:04015400aa030000fa
:020000040000fa
:04015800aa030000f6
:020000040000fa
:04015c00aa030000f2
:020000040000fa
:04016000aa030000ee
:020000040000fa
:04016400aa030000ea
:020000040000fa
:04016800aa030000e6
:020000040000fa
:04016c00aa030000e2
:020000040000fa
:04017000aa030000de
:020000040000fa
:04017400aa030000da
:020000040000fa
:04017800aa030000d6
:020000040000fa
:04017c00aa030000d2
:020000040000fa
:04018000aa030000ce
:020000040000fa
:04018400aa030000ca
:020000040000fa
:04018800aa030000c6
:020000040000fa
:04018c00aa030000c2
:020000040000fa
:04019000aa030000be
:020000040000fa
:04019400aa030000ba
:020000040000fa
:04019800aa030000b6
:020000040000fa
:04019c00aa030000b2
:020000040000fa
:0401a000aa030000ae
:020000040000fa
:0401a400aa030000aa
:020000040000fa
:0401a800aa030000a6
:020000040000fa
:0401ac00aa030000a2
:020000040000fa
:0401b000aa0300009e
:020000040000fa
:0401b400aa0300009a
:020000040000fa
:0401b800aa03000096
:020000040000fa
:0401bc00aa03000092
:020000040000fa
:0401c000aa0300008e
:020000040000fa
:0401c400aa0300008a
:020000040000fa
:0401c800aa03000086
:020000040000fa
:0401cc00aa03000082
:020000040000fa
:0401d000aa0300007e
:020000040000fa
:0401d400aa0300007a
:020000040000fa
:0401d800aa03000076
:020000040000fa
:0401dc00aa03000072
:020000040000fa
:0401e000aa0300006e
:020000040000fa
:0401e400aa0300006a
:020000040000fa
:0401e800aa03000066
:020000040000fa
:0401ec00aa03000062
:020000040000fa
:0401f000aa0300005e
:020000040000fa
:0401f400aa0300005a
:020000040000fa
:0401f800aa03000056
:020000040000fa
:0401fc00aa03000052
:020000040000fa
:100200000f8e20000e7f22000e01880000000000eb
:10021000000020000000e000020032000001200089
:1002200020028800140007004c0107000000e000d5
:1002300003003a00a0bc20000100200002003700ab
:100240000000200001002000810f7000010032003a
:1002500014000700000020000000e000020032004f
:10026000000002000000000074070200000000000f
:100270000040da000000fe004440a90060052000b4
:100280000000e00003003200002020009001880000
:100290004440a800000006008a1f78008b1f7800e9
:1002a00000000600a1028800800478000000eb0036
:1002b0001f003700e284440054a0b4009905ba003e
:1002c000e284440054a0b4009906ba00e2844400d9
:1002d00054a0b4000006eb00476fde00fd07b2003b
:1002e000ae018800636ce10003003a00eaff0700fa
:1002f0000000eb000e003700606ce10008003a00df
:10030000004deb000a05e800020039003420ec0043
:100310000af0a0008b05e900f9ff3e000400370059
:100320006168e100010032000086eb000b0007006d
:1003300019c7ba001905ba000e04e00003003a001c
:100340000a00e000dbff3a0000000600fe07b200f2
:10035000ae0288008a047800f5ff37000cd0a300b5
:10036000e20f4d001c00390089027800354dba00bb
:100370000a05e800020039003420ec000af0a00071
:100380008b05e9000f003200254dba000a05e80090
:10039000020039003420ec000af0a0008b05e900cf
:1003a000080032000c00e0000600320015cdba0053
:1003b0000a05e800020039003420ec000af0a00031
:1003c0008b05e9008984e80054a0b4000b00e0002c
:1003d000e2ff3a00000006009902ba00055d7800cd
:1003e0008b05e900f7ff3200c82ade00055d7800c2
:1003f0008b05e900f3ff32000c00e000f1ff320052
:1004000019ddba00eeff3700ee070400000000001f
:100410000c080400000000001404040000000000a8
:100420003600f800809fbe00829fbe00849fbe0001
:10043000869fbe000000fa008020a9000000eb00ab
:10044000fd0407000080fa004f03be004f02be000b
:100450004f01be004f00be003600f900004006000c
:100460003600f800809fbe00829fbe00849fbe00c1
:10047000869fbe000000fa00f60407008040a90035
:1004800010002000ec0407000080fa004f03be00bb
:100490004f02be004f01be004f00be003600f90003
:1004a000004006003600f800809fbe00829fbe001c
:1004b000849fbe00869fbe000000fa008060a900f5
:1004c00020002000dc0407000080fa004f03be007b
:1004d0004f02be004f01be004f00be003600f900c3
:1004e000004006003600f800809fbe00829fbe00dc
:1004f000849fbe00869fbe000000fa008080a90095
:1005000030002000cc0407000080fa004f03be003a
:100510004f02be004f01be004f00be003600f90082
:10052000004006003600f800809fbe00829fbe009b
:10053000849fbe00869fbe000000fa008600a900ce
:1005400070002000bc0407000080fa004f03be00ca
:100550004f02be004f01be004f00be003600f90042
:10056000004006003600f800809fbe00829fbe005b
:10057000849fbe00869fbe000000fa0085e0a900af
:1005800080002000ac0407000080fa004f03be008a
:100590004f02be004f01be004f00be003600f90002
:1005a000004006003600f800809fbe00829fbe001b
:1005b000849fbe00869fbe000000fa00504080006d
:1005c000000001003140800020408000808f5000fa
:1005d00002003a009be0a900190037008be0a90057
:1005e0001000370030408000904078008180fb0090
:1005f000911d88000000e8003040880031408000f4
:10060000708d2000808f500002003a00e08c2000a6
:10061000304088003140800020408000808f5000b2
:1006200006003200811d8000002020000080600054
:100630000000e000ebff3200010037000000000086
:100640000080fa004f03be004f02be004f01be0003
:100650004f00be003600f900004006003600f800ea
:10066000809fbe00829fbe00849fbe00869fbe000a
:100670000000fa008bc0a9001e0037000040800077
:10068000a11d800081407800014878000140800071
:10069000f08d2000808f5000090032000040800063
:1006a0008000e80010408000808f5000040032007d
:1006b000004080000000e800004088000d00370086
:1006c00001408000f08d2000808f500007003a002c
:1006d00011408000708d2000808f50000300320098
:1006e000708d2000004088000200370010c0b30069
:1006f00008e8b700801d8000610060000000e00095
:10070000deff3a0060408000000001000080fa0037
:100710004f03be004f02be004f01be004f00be009f
:100720003600f90000400600801f78000000fa0043
:10073000801d8000620060000000e00001003200c7
:10074000b023a9009040a9000080fa004f00780073
:10075000004006000040da000000fe000000050036
:100760008001780002003700b15978000201e900e9
:0c0770000200e000fcff3a000000060060
:020000040000fa
:10077c00415400000d0a000000410000542b000001
:10078c004d4f0000444500003d540000455300000f
:10079c00540d00000a000000415400002b540000ce
:1007ac0045530000543d00005246000043460000f3
:1007bc00472c000039310000352c00005346000056
:1007cc00313000002c310000323500002c3100009b
:1007dc00322c0000313500002c3900002c4f000069
:1007ec004e2c00004f460000462c00004f460000e7
:1007fc00460d00000a000000415400002b5400007c
:10080c0045530000543d0000525800004c5200006b
:0c081c00504b0000540d00000a000000ca
:020000040000fa
:100828000400fa00a04080000000e0001a003a002e
:10083800fa010700000f7800904080009e007800c1
:10084800014178008181200082707800904080000a
:100858000000e80090408800914080005009200086
:10086800808f5000020036001228ef000c0037007d
:10087800904080000000e9008181200061407800fc
:10088800ea4f500006003a001228ef00100020003e
:10089800a040880002003700e00107001007980018
:1008a8000080fa00000006002200fa000e80e8002e
:1008b80052002000e13b2800a7ff07000000eb00e2
:1008c800000f7800090037000a020700e10f500006
:1008d80006003a000e80e8001e0040001040780034
:1008e8000000fb00e30107001e0fe8001e0078006f
:1008f800e30f5000f4ff34000200370000c7b300d4
:10090800404f9800a04080000000e000fbff32004c
:100918001428ef000080fa00000006004800fa00e2
:1009280068004700f2002000313c28008aff0700d9
:100938000000eb00000f78000d003700680047004a
:100948001e004000104078000000fb00c9010700ad
:10095800680047001e00400010407800ea4f500031
:1009680002003a0000022000000f78001e0fe80085
:100978001e007800ff0f5000f0ff34000000eb006d
:10098800000f78000e003700a401070080407800af
:10099800800220000e0040001e0040000148780040
:1009a8001e0fe8001e00e9000000470000689000e4
:1009b800ea4f500002003a0010022000000f7800b1
:1009c8001e007800ff0f5000efff3400fe68900013
:1009d80040c5b30080cf50000e003a008e709000e2
:1009e80050c4b30080cf50000a003a009e709000b7
:1009f80030c5b30080cf500006003a00ae709000ba
:100a080040c5b30080cf500002003a00100020001b
:100a1800010037000000eb0030079800fe689000e6
:100a280040c5b30080cf50001e003a008e70900081
:100a380050c4b30080cf50001a003a009e70900056
:100a480030c5b30080cf500016003a00ae70900059
:100a580040c5b30080cf500012003a000000eb0000
:100a68001007980009003700810220008e8040009e
:100a78001e009000008040008040eb000148780094
:100a88001e0090000000e800100798009e009000eb
:100a980000022000808f5000f3ff340010c0b30024
:100aa800110037000000eb0020079800090037000c
:100ab800810220008e8040002e00900000804000bf
:100ac8008040eb00014878002e0090000000e8000c
:100ad80020079800ae00900000022000808f500090
:100ae800f3ff34000040eb000080fa00000006002d
:100af800ac00fa006800470002032000213d2800ee
:100b080015ff07000000eb00000f78001000370009
:100b180078010700e10f50000d003a006800470017
:100b28001e004000104078000000fb005101070043
:100b3800680047001e00400010407800ea4f50004f
:100b480002003a0000042000000f78001e0fe800a1
:100b5800f00320009e007800808f5000ecff3400e6
:100b68000000eb00000f78000e0037002b01070093
:100b780080407800800420000e0040001e004000e5
:100b8800014878001e0fe8001e00e9000000470039
:100b980000c89000ea4f500002003a0050062000ba
:100ba800000f7800300620009e007800808f5000eb
:100bb800eeff3400fec8900020c5b30080cf50007f
:100bc8000e003a008ed0900060c4b30080cf500071
:100bd8000a003a009ed0900030c4b30080cf500085
:100be80006003a00aed0900060c4b30080cf500039
:100bf80002003a0010002000010037000000eb005e
:100c080030079800fec8900020c5b30080cf500080
:100c18001e003a008ed0900060c4b30080cf500010
:100c28001a003a009ed0900030c4b30080cf500024
:100c380016003a00aed0900060c4b30080cf5000d8
:100c480012003a000000eb00100798000900370076
:100c5800810420008e8040001e009000008040002b
:100c68008040eb00014878001e0090000000e8007a
:100c7800100798009e00900000022000808f50000e
:100c8800f3ff340010c0b300110037000000eb0080
:100c98002007980009003700810420008e8040005a
:100ca8002e009000008040008040eb000148780052
:100cb8002e0090000000e80020079800ae00900089
:100cc80000022000808f5000f3ff34000040eb004a
:100cd8000080fa0000000600ac00fa006800470037
:100ce80022012000214028009bfe07000000eb00a5
:100cf800000f780010003700fe000700e10f5000d9
:100d08000d003a00680047001e00400010407800bf
:100d18000000fb00d7000700680047001e004000e5
:100d280010407800ea4f500002003a0010042000fa
:100d3800000f78001e0fe800f00320009e007800e6
:100d4800808f5000ecff34000000eb00000f7800ab
:100d58000e003700b10007008040780080042000b2
:100d68000e0040001e004000014878001e0fe800f9
:100d78001e00e9000000470000c89000ea4f50003c
:100d880002003a0030062000000f7800a00520007d
:100d98009e007800808f5000eeff3400fec890005f
:100da80020c5b30080cf50000e003a008ed09000ce
:100db80080c5b30080cf50000a003a009ed0900052
:100dc800c0c4b30080cf500006003a00aed09000f7
:100dd80020c5b30080cf500002003a001000200068
:100de800010037000000eb00300798003e0090003b
:100df800e10f500012003a000000eb0010079800c5
:100e080009003700810420008e8040001e009000f9
:100e1800008040008040eb00014878001e009000f0
:100e28000000e800100798009e00900000022000d3
:100e3800808f5000f3ff340010c0b300110037005a
:100e48000000eb002007980009003700810420000b
:100e58008e8040002e009000008040008040eb0013
:100e6800014878002e0090000000e8002007980054
:100e7800ae00900000022000808f5000f3ff340085
:100e88000040eb000080fa00000006000a00fa00ab
:100e98000000eb00000f780083fe07001e009000a2
:100ea8000000e000080032002e0090000000e00082
:100eb800050032003e0090000000e0000200320011
:100ec80010002000010037000000eb00000f780040
:100ed8000000eb00400798000080fa0000000600c0
:100ee8000400fa0068020700404120003c000700a7
:100ef8000000eb00000f7800010037001e0fe8002b
:100f08001e007800e10f4000fcff3a00dfff0700f9
:100f18000000eb0010079800030037001e00900047
:100f28000000e800100798001e009000e10f400044
:100f3800faff3a005cfe0700f5ff37000000fa00f0
:100f48009be0a9009bc0a90080002000701d8800bc
:100f5800b023ef00001a2000b01d8800e08c2000ac
:100f680030408800e08c200020408800708d2000f0
:100f780010408800708d2000004088000868ef004d
:100f8800e07e200007000700c08020001400070052
:100f98009bc0a800afe3a800b143a8000080fa00f6
:100fa800000006000200fa00000f78001e0078001a
:100fb8000000e00003003a00e07e20005040880076
:100fc800020037009e007800514088000080fa0037
:100fd800000006000000fa000080fa000000060089
:100fe8000200fa00000f78001e0078000000e00000
:100ff80003003a00c08020006040880002003700eb
:101008009e007800614088000080fa000000060019
:101018000000fa000080fa00000006000200fa0052
:101028000040eb00004f78000000000011408000f5
:1010380000408000808f5000fcff3200104080008c
:10104800104f7800104080000000e8001040880031
:1010580011408000008e2000808f500002003a006e
:10106800708d2000104088001e4078000080fa0033
:10107800000006000200fa00004f7800000000009f
:101088001c0007000004a2000004e000fcff3a0076
:10109800204080001e487800204080000000e800c2
:1010a8002040880021408000708d2000808f5000f3
:1010b80002003a00e08c2000204088009be0a80055
:1010c8000080fa00000006000000fa0011408000cd
:1010d800004080000080680000f0a7000000ea00df
:1010e8000000ea004f00de00004078000080fa00af
:1010f800000006000400fa00314080001107980043
:10110800214080001e009000808f500006003100b2
:101118009e00900020408000008050000000e90000
:10112800000f7800050037009e00900020408000e6
:101138000080500068004000000f78001e00780012
:1011480000f0a7000000ea000000ea004f00de00ff
:10115800004078000080fa00000006000000fa0055
:101168002140800030408000808f500009003a0004
:10117800811d8000001020000080600000f0a700a2
:101188000000ea000000ea004f00de00004078009e
:10119800010037000040eb000080fa000000060064
:1011a8000400fa00014080001107980010408000f8
:1011b8009e009000808f5000060031009e00900035
:1011c800104080000080500069004000000f780047
:1011d800030037009e00900010408000008f5000f0
:1011e800f00f20009e007800808f5000020036002b
:1011f80000c0eb00020037001e00780000407800b5
:101208000080fa00000006000400fa003140800067
:1012180011079800214080001e009000808f500028
:10122800060031009e0090002040800000805000a1
:101238000000e900000f7800050037009e009000cc
:10124800204080000080500068004000000f7800b7
:10125800f00f20009e007800808f500002003600ba
:1012680000c0eb00020037001e0078000040780044
:101278000080fa00000006000800fa002007980025
:1012880031079800c6ff07000080fb00000f7800b8
:101298003e0090009e0f500002003100be009000fa
:1012a800010f78000000eb001007980009003700d4
:1012b8005aff0700ae009000804878002e0090008a
:1012c8000000e800200798001e0090000000e800d9
:1012d800100798001e0090009e0f5000f4ff390080
:1012e8001e0078000080fa00000006000800fa00de
:1012f8002007980031079800c3ff07000080fb0013
:10130800000f78003e0090009e0f50000200310050
:10131800be009000010f78000000eb001007980055
:10132800090037002e00900010407800ae009000b1
:101338008100e800210798004eff07001e0090007a
:101348000000e800100798001e0090009e0f500053
:10135800f4ff39001e0078000080fa000000060043
:101368000400fa000000eb00000f78008cff070073
:1013780020479800a4ff0700304798002e409000af
:101388000080fb000000e00003003200e90f50007d
:1013980003003200040037001e20a00004003700bc
:1013a8001e00a000020037001e10a0000000000070
:1013b8003e4090000080fb000000e0000300320087
:1013c800e90f500003003200040037001e30a0006f
:1013d800020037001e40a000000000001e00780038
:1013e8000080fa00000006000400fa0010079800c8
:1013f800114080001e009000008f4000020037005e
:101408009e007800698f5000008e20009e007800b2
:10141800808f5000faff3e001e00780010407800d0
:101428000080fa00000006000000fa005cff0700d8
:101438000080fb000000e9004f00de00004078005b
:101448000080fa00000006000000fa006eff0700a6
:101458000080fb000000e9004f00de00004078003b
:101468000080fa00000006000000fa00801d8000dd
:101478000080fa00000006000000fa0062ff070082
:101488000004e0001000320031408000204080005d
:10149800808f5000060036003040800080007800c1
:1014a80020408000008050000000e900070037005d
:1014b800304080008000780020408000008050008c
:1014c80068004000010037000000eb000080fa00cf
:1014d800000006000000fa0031ff07000004e000e9
:1014e800100032001140800000408000808f5000c2
:1014f8000600360010408000800078000040800020
:10150800008050000000e90007003700104080000c
:101518008000780000408000008050006800400093
:10152800010037000000eb000080fa000000060010
:101538000000fa00afe3a800b143a8000080fa0059
:10154800000006000000fa00afe3a900b143a900bb
:101558000080fa00000006000000fa006426ef0090
:101568007826ef008c26ef00a026ef00b426ef00c7
:10157800c826ef00dc26ef001000200000338800aa
:101588000080eb00a033880000002700403488006a
:10159800f07f2000e0348800f00f200080358800bc
:1015a800f007200020368800c03c2000c0368800a4
:1015b8007226ef008626ef009a26ef00ae26ef008f
:1015c800c226ef00d626ef00ea26ef007026ef00cd
:1015d8008426ef009826ef00ac26ef00c026ef0027
:1015e800d426ef00e826ef007226ef008626ef00eb
:1015f8009a26ef00ae26ef00c226ef00d626ef00af
:10160800ea26ef007026ef008426ef009826ef0008
:10161800ac26ef00c026ef00d426ef00e826ef0046
:101628006626ef007a26ef008e26ef00a226ef004e
:10163800b626ef00ca26ef00de26ef0010002000d5
:1016480040338800c0ff2f00e033880000002300eb
:1016580080348800000c200020358800e00120003c
:10166800c0358800003c2000003788000108800051
:10167800f00b20000081600060042000710520004c
:101688000310200080497800814978008249780059
:10169800013f800000f82f00008060005000b30078
:1016a800003f8800b13d800000fc2f0000806000f2
:1016b8003000b300b03d88000008800000017800c9
:1016c8000260a000600420007105200003102000c3
:1016d8008049780081497800824978000080fa00c2
:1016e800000006000000fa0000002300100888002f
:1016f8000621ef006821ef006a21ef000c21ef00be
:101708000e21ef007821ef007c21ef007e21ef0011
:101718008021ef008221ef008421ef008621ef0075
:101728001200200080072000a109200013102000cb
:1017380080497800814978008249780012002000a9
:101748006004200071052000031020008049780003
:101758008149780082497800000000000008800074
:10176800610060000000e000fcff3a00000000009b
:101778000108800000022000008060000000e000f6
:0c178800fbff32000080fa0000000600a9
:020000040000fa
:10179400ae080000200000008000000016080000d1
:1017a4000200000082000000ffff0000ce080000dd
:1017b4001200000080000000000800000e0000007d
:1017c400800000000e0800000400000080000000fb
:1017d40018080000960000008000000012080000b5
:0c17e40004000000800000000000000075
:020000040000fa
:1017f0000000fa0041068000f08f2f00008060009a
:101800000080a00040068800b1058000f0ff28009d
:101810000080600000c0a000b0058800b105800015
:10182000f08f2f00008060000080a000b0058800cd
:101830000080fa00000006000200fa00000f7800a5
:101840009e007800b14088000000fe000080fa0091
:10185000000006000000fa00e08a200080077800ff
:10186000608c2000000188000080fa000000060063
:10187000809fbe00ec8057003100780070408800e7
:101880001100780010e8b7004f00be00000006000d
:101890000000fa0032ff070094ff0700d4ff0700a2
:0c18a000a8fd07000080fa000000060010
:020000040000fa
:020000040002f8
:04be0000ffffff0041
:020000040000fa
:020000040002f8
:04be2000ffffff0021
:020000040000fa
:020000040002f8
:04be300008ffff0008
:020000040000fa
:020000040002f8
:04be380067ffff00a1
:020000040000fa
:020000040002f8
:04be40009fffff0061
:020000040000fa
:020000040002f8
:04be4800ffffff00f9
:020000040000fa
:020000040002f8
:04be5000dfffff0011
:020000040000fa
:020000040002f8
:04be58000000ff00e7
:020000040000fa
:020000040002f8
:04be60000000ff00df
:020000040000fa
:020000040002f8
:04be68000000ff00d7
:020000040000fa
:020000040002f8
:04be70000000ff00cf
:020000040000fa
:020000040002f8
:04be7800ffffff00c9
:020000040000fa
:020000040002f8
:04be8000ffffff00c1
:00000001FF
