:020000040000fa
:080000000001040000000000f3
:020000040000fa
:0400080004020000ee
:020000040000fa
:04000c0046020000a8
:020000040000fa
:040010008602000064
:020000040000fa
:0400140024020000c2
:020000040000fa
:04001800660200007c
:020000040000fa
:04001c00c602000018
:020000040000fa
:04002000a602000034
:020000040000fa
:04002400c602000010
:020000040000fa
:04002800c60200000c
:020000040000fa
:04002c00c602000008
:020000040000fa
:04003000c602000004
:020000040000fa
:04003400c602000000
:020000040000fa
:04003800c6020000fc
:020000040000fa
:04003c00c6020000f8
:020000040000fa
:04004000c6020000f4
:020000040000fa
:04004400c6020000f0
:020000040000fa
:04004800c6020000ec
:020000040000fa
:04004c00c6020000e8
:020000040000fa
:04005000c6020000e4
:020000040000fa
:04005400c6020000e0
:020000040000fa
:04005800c6020000dc
:020000040000fa
:04005c00c6020000d8
:020000040000fa
:04006000c6020000d4
:020000040000fa
:04006400c6020000d0
:020000040000fa
:04006800c6020000cc
:020000040000fa
:04006c00c6020000c8
:020000040000fa
:04007000c6020000c4
:020000040000fa
:04007400c6020000c0
:020000040000fa
:04007800c6020000bc
:020000040000fa
:04007c00c6020000b8
:020000040000fa
:04008000c6020000b4
:020000040000fa
:04008400c6020000b0
:020000040000fa
:04008800c6020000ac
:020000040000fa
:04008c00c6020000a8
:020000040000fa
:04009000c6020000a4
:020000040000fa
:04009400c6020000a0
:020000040000fa
:04009800c60200009c
:020000040000fa
:04009c00c602000098
:020000040000fa
:0400a000c602000094
:020000040000fa
:0400a400c602000090
:020000040000fa
:0400a800c60200008c
:020000040000fa
:0400ac00c602000088
:020000040000fa
:0400b000c602000084
:020000040000fa
:0400b400c602000080
:020000040000fa
:0400b800c60200007c
:020000040000fa
:0400bc00c602000078
:020000040000fa
:0400c000c602000074
:020000040000fa
:0400c400c602000070
:020000040000fa
:0400c800c60200006c
:020000040000fa
:0400cc00c602000068
:020000040000fa
:0400d000c602000064
:020000040000fa
:0400d400c602000060
:020000040000fa
:0400d800c60200005c
:020000040000fa
:0400dc00c602000058
:020000040000fa
:0400e000c602000054
:020000040000fa
:0400e400c602000050
:020000040000fa
:0400e800c60200004c
:020000040000fa
:0400ec00c602000048
:020000040000fa
:0400f000c602000044
:020000040000fa
:0400f400c602000040
:020000040000fa
:0400f800c60200003c
:020000040000fa
:0400fc00c602000038
:020000040000fa
:04010000c602000033
:020000040000fa
:04010400c60200002f
:020000040000fa
:04010800c60200002b
:020000040000fa
:04010c00c602000027
:020000040000fa
:04011000c602000023
:020000040000fa
:04011400c60200001f
:020000040000fa
:04011800c60200001b
:020000040000fa
:04011c00c602000017
:020000040000fa
:04012000c602000013
:020000040000fa
:04012400c60200000f
:020000040000fa
:04012800c60200000b
:020000040000fa
:04012c00c602000007
:020000040000fa
:04013000c602000003
:020000040000fa
:04013400c6020000ff
:020000040000fa
:04013800c6020000fb
:020000040000fa
:04013c00c6020000f7
:020000040000fa
:04014000c6020000f3
:020000040000fa
:04014400c6020000ef
:020000040000fa
:04014800c6020000eb
:020000040000fa
:04014c00c6020000e7
:020000040000fa
:04015000c6020000e3
:020000040000fa
:04015400c6020000df
:020000040000fa
:04015800c6020000db
:020000040000fa
:04015c00c6020000d7
:020000040000fa
:04016000c6020000d3
:020000040000fa
:04016400c6020000cf
:020000040000fa
:04016800c6020000cb
:020000040000fa
:04016c00c6020000c7
:020000040000fa
:04017000c6020000c3
:020000040000fa
:04017400c6020000bf
:020000040000fa
:04017800c6020000bb
:020000040000fa
:04017c00c6020000b7
:020000040000fa
:04018000c6020000b3
:020000040000fa
:04018400c6020000af
:020000040000fa
:04018800c6020000ab
:020000040000fa
:04018c00c6020000a7
:020000040000fa
:04019000c6020000a3
:020000040000fa
:04019400c60200009f
:020000040000fa
:04019800c60200009b
:020000040000fa
:04019c00c602000097
:020000040000fa
:0401a000c602000093
:020000040000fa
:0401a400c60200008f
:020000040000fa
:0401a800c60200008b
:020000040000fa
:0401ac00c602000087
:020000040000fa
:0401b000c602000083
:020000040000fa
:0401b400c60200007f
:020000040000fa
:0401b800c60200007b
:020000040000fa
:0401bc00c602000077
:020000040000fa
:0401c000c602000073
:020000040000fa
:0401c400c60200006f
:020000040000fa
:0401c800c60200006b
:020000040000fa
:0401cc00c602000067
:020000040000fa
:0401d000c602000063
:020000040000fa
:0401d400c60200005f
:020000040000fa
:0401d800c60200005b
:020000040000fa
:0401dc00c602000057
:020000040000fa
:0401e000c602000053
:020000040000fa
:0401e400c60200004f
:020000040000fa
:0401e800c60200004b
:020000040000fa
:0401ec00c602000047
:020000040000fa
:0401f000c602000043
:020000040000fa
:0401f400c60200003f
:020000040000fa
:0401f800c60200003b
:020000040000fa
:0401fc00c602000037
:020000040000fa
:100200008f8220000e7f22000e0188000000000077
:10021000000020000000e000020032000001200089
:100220002002880014000700da0007000000e00048
:1002300003003a0040852000010020000200370042
:100240000000200001002000810f7000010032003a
:1002500014000700000020000000e000020032004f
:10026000000002000000000008030200000000007f
:100270000040da000000fe004440a900c003200056
:100280000000e00003003200002020009001880000
:100290004440a800000006008a1f78008b1f7800e9
:1002a00000000600a1028800800478000000eb0036
:1002b0001f003700e284440054a0b4009905ba003e
:1002c000e284440054a0b4009906ba00e2844400d9
:1002d00054a0b4000006eb00476fde00fd07b2003b
:1002e000ae018800636ce10003003a00eaff0700fa
:1002f0000000eb000e003700606ce10008003a00df
:10030000004deb000a05e800020039003420ec0043
:100310000af0a0008b05e900f9ff3e000400370059
:100320006168e100010032000086eb000b0007006d
:1003300019c7ba001905ba000e04e00003003a001c
:100340000a00e000dbff3a0000000600fe07b200f2
:10035000ae0288008a047800f5ff37000cd0a300b5
:10036000e20f4d001c00390089027800354dba00bb
:100370000a05e800020039003420ec000af0a00071
:100380008b05e9000f003200254dba000a05e80090
:10039000020039003420ec000af0a0008b05e900cf
:1003a000080032000c00e0000600320015cdba0053
:1003b0000a05e800020039003420ec000af0a00031
:1003c0008b05e9008984e80054a0b4000b00e0002c
:1003d000e2ff3a00000006009902ba00055d7800cd
:1003e0008b05e900f7ff3200c82ade00055d7800c2
:1003f0008b05e900f3ff32000c00e000f1ff320052
:1004000019ddba00eeff37003600f800809fbe000d
:10041000829fbe00849fbe00869fbe000000fa003f
:100420008020a9000000eb00110307000080fa0003
:100430004f03be004f02be004f01be004f00be0082
:100440003600f900004006003600f800809fbe002c
:10045000829fbe00849fbe00869fbe000000fa00ff
:100460000a0307008040a9001000200000030700d5
:100470000080fa004f03be004f02be004f01be00d5
:100480004f00be003600f900004006003600f800bc
:10049000809fbe00829fbe00849fbe00869fbe00dc
:1004a0000000fa008060a90020002000f002070090
:1004b0000080fa004f03be004f02be004f01be0095
:1004c0004f00be003600f900004006003600f8007c
:1004d000809fbe00829fbe00849fbe00869fbe009c
:1004e0000000fa008080a90030002000e002070030
:1004f0000080fa004f03be004f02be004f01be0055
:100500004f00be003600f900004006003600f8003b
:10051000809fbe00829fbe00849fbe00869fbe005b
:100520000000fa008600a90070002000d002070039
:100530000080fa004f03be004f02be004f01be0014
:100540004f00be003600f900004006003600f800fb
:10055000809fbe00829fbe00849fbe00869fbe001b
:100560000000fa0085e0a90080002000c00207001a
:100570000080fa004f03be004f02be004f01be00d4
:100580004f00be003600f900004006000040da00cf
:080590000000fe000000050060
:020000040000fa
:10059800494e00004954000004000000000000001b
:1005a8000000000000000000474e00004644000024
:1005b800040000000000000010000000000000001f
:1005c800474e000046440000040000000000000000
:1005d80008000000000000005252000041490000dd
:1005e80004000000000000000300000000000000fc
:1005f80052530000504900000400000000000000b1
:080608000300000000000000e7
:020000040000fa
:100610009600fa00881f7800b10207006501070004
:100620001c020700e5004700c22c28000b0009004f
:10063000b2587800f1004700080009008058eb002c
:1006400010c0b300105798007a014700812d280090
:100650000b000900315978006202200002014700b6
:10066000412e28000b000900315978002203200098
:1006700002014700012f28000b00090031597800c2
:10068000e203200002014700c12f28000b000900ef
:10069000315978000e017800a204b0000f00090063
:1006a0000019eb0010c0b30020cf98008e00780036
:1006b000a106b0000b0009008018eb008058eb0089
:1006c00010c0b30020ef98000e0178003208b0008f
:1006d000080009000059eb0010c0b3003047990032
:1006e0008e007800c108b000030009008018eb00fc
:1006f0008058eb0010c0b300404f990010c0b30009
:100700001047980020c0b30020479800030037002e
:100710000000000001003700000000001e409000b3
:10072000e14f500057003a000040eb00004f7800c6
:100730000a0037001e80fb00000047005040900078
:100740000080fb0034010700000000004a010700a0
:100750000000e000fdff32001e4fe8001e40780060
:10076000eb4f5000f3ff36000040eb00004f7800e5
:10077000060037001e84fb00180107008040780047
:1007800008004700115098001e4fe8001e407800f6
:10079000e84f5000f7ff36000040eb00004f7800b4
:1007a0000a0037001e80fb000000470060789000c0
:1007b0000080fb0018010700000000002e01070068
:1007c0000000e000fdff32001e4fe8001e407800f0
:1007d000eb4f5000f3ff36000040eb00004f780075
:1007e000060037001e84fb00fc00070080407800f4
:1007f00008004700314099001e4fe8001e40780075
:10080000e84f5000f7ff36000040eb00004f780043
:100810000a0037001e80fb00000047002070900097
:100820000080fb00fc000700000000001201070030
:100830000000e000fdff32001e4fe8001e4078007f
:10084000eb4f5000f3ff36000040eb00004f780004
:10085000060037001e84fb00e0000700804078009f
:1008600008004700414899001e4fe8001e407800ec
:10087000e84f5000f7ff3600bb0107000040eb00d7
:1008800010479800c30107000000e000a0ff3200fd
:100890000040eb00004f78000a0037000000000025
:1008a000f50007000000e000fdff32001e80fb00a5
:1008b00000004700205890000080fb00d600070091
:1008c0001e4fe8001e407800ed4f5000f3ff360049
:1008d0000040eb00004f78000a00370000000000e5
:1008e000d90007000000e000fdff32001e84fb007d
:1008f000ba000700804078000800470021c898002f
:100900001e4fe8001e407800ff4f5000f3ff3600f6
:100910000040eb00004f7800270037001e80fb00ee
:1009200000004700a0c8900040c4b30080cf500032
:1009300020003a001e80fb000000e8000000470095
:10094000a0c8900040c4b30080cf500019003a0006
:100950001e80fb000080e80000004700a0c8900057
:1009600010c4b30080cf500012003a001e80fb007c
:100970006300400000004700a0c8900040c5b300dd
:1009800080cf50000b003a001e80fb006400400046
:100990000000470020c89000e64f500005003a00d4
:1009a0001e80fb006b0040000000470020c9900043
:1009b000224798001e4fe8001e407800f24f50007a
:1009c000d6ff36002e4090000043b000304798001c
:1009d000be4090004147980003010700e10f50001e
:1009e0004dff3a003e4090000080fb00e60007000b
:1009f0004aff37000000fa006426ef007826ef0077
:100a00008c26ef000001200000358800b426ef009e
:100a10008000200040368800dc26ef001000200017
:100a2000003388000080eb00a0338800000027001e
:100a300040348800f0fe2000e0348800f00f2000f1
:100a4000803588007007200020368800c03c2000d8
:100a5000c03688007226ef008626ef009a26ef0047
:100a6000ae26ef00c226ef00d626ef00ea26ef0002
:100a70007026ef008426ef009826ef00ac26ef00ea
:100a8000c026ef00d426ef00e826ef007226ef0024
:100a90008626ef009a26ef00ae26ef00c226ef0072
:100aa000d626ef00ea26ef007026ef008426ef003e
:100ab0009826ef00ac26ef00c026ef00d426ef000a
:100ac000e826ef006626ef007a26ef008e26ef007c
:100ad000a226ef00b626ef00ca26ef00de26ef00c2
:100ae0001000200040338800c0ff2f00e033880052
:100af00000002b008034880000cc200020358800c6
:100b0000e0012000c0358800003c2000003788004c
:100b100001088000f00b20000081600060042000cc
:100b20007105200003102000804978008149780079
:100b300082497800a13d800000fc2f000080600009
:100b40004001b300a03d8800213f800000f82f0045
:100b5000008060008001b300203f8800313e8000ab
:100b600000fc2f0000806000e001b300303e8800f0
:100b7000613f8000f00f280080806000003020007e
:100b800001007000603f88000008800000017800cc
:100b90000260a00060042000710520000310200006
:100ba0008049780081497800824978000080fa0005
:100bb000000006000000fa00a0002000c01c880011
:100bc0009a23ef0080002000001d880099e3a80010
:100bd0009b43a8000080fa00000006000000fa0015
:100be00000000000d01c8000610060000000e000f8
:100bf000fcff3200d01c8000620060000000e000ba
:100c0000010032009a23a900f01c80000040780007
:100c10000080fa00000006000200fa00004f780091
:100c200000000000d11c8000002020000080600037
:100c30000000e000fbff3a001e80fb00e01c880083
:100c40000080fa00000006000000fa00d01c8000be
:100c500000407800614060000080fb0000f0a700c9
:100c60000000ea000000ea004f00de0000407800cb
:100c70000080fa00000006000000fa00d11c80008d
:100c800000202000008060000000e00007003a0023
:100c9000d11c800000402000008060000000e000c7
:100ca0000200320010002000010037000000eb00bd
:100cb000004078000080fa00000006000000fa0002
:100cc000d01c80004800de00614060000080fb0016
:100cd00000f0a7000000ea000000ea004f00de007c
:100ce000004078000080fa00000006000000fa00d2
:100cf000d01c80000080fa00000006000000fa000e
:100d000099e3a8009b43a8000080fa0000000600b9
:100d10000000fa0099e3a9009b43a9000080fa00b3
:100d2000000006000000fa0080002000801e8800fd
:100d3000d223ef0070062000c01e8800d1e3a80077
:100d4000d343a8000080fa00000006000000fa006b
:100d500000000000901e8000610060000000e000c4
:100d6000fcff3200901e8000620060000000e00086
:100d700001003200d223a900b01e8000004078009c
:100d80000080fa00000006000200fa00004f780020
:100d900000000000911e8000002020000080600004
:100da0000000e000fbff3a001e80fb00a01e880050
:100db0000080fa00000006000000fa00901e80008b
:100dc00000407800614060000080fb0000f0a70058
:100dd0000000ea000000ea004f00de00004078005a
:100de0000080fa00000006000000fa00911e80005a
:100df00000202000008060000000e00007003a00b2
:100e0000911e800000402000008060000000e00093
:100e10000200320010002000010037000000eb004b
:100e2000004078000080fa00000006000000fa0090
:100e3000901e80004800de00614060000080fb00e2
:100e400000f0a7000000ea000000ea004f00de000a
:100e5000004078000080fa00000006000000fa0060
:100e6000901e80000080fa00000006000000fa00da
:100e7000d1e3a800d343a8000080fa0000000600d8
:100e80000000fa00d1e3a900d343a9000080fa00d2
:100e9000000006000000fa009021ef00f01820008a
:100ea000900c880000002800a00c880060822000c0
:100eb0008040eb00014878000080fa000000060046
:100ec0000000fa0040048000680060000000e000bc
:100ed0000900320070822000104078008040e80055
:100ee00070822000014878006082200011c0b300a9
:100ef000014878008860a9000080fa000000060020
:100f00000200fa00000f78009e007800910c880023
:100f1000608220008040eb00014878000080fa00e9
:100f2000000006000000fa00900c80000080fa002b
:100f3000000006000200fa00000f78009e00780012
:100f4000810c8800608220008040eb00014878001e
:100f50000080fa00000006000000fa00800c80000b
:100f60000080fa00000006000000fa006082200005
:100f70008040eb000148780095e1a8000080fa006d
:100f8000000006000000fa0095e1a9000080fa00c8
:100f9000000006000200fa0060822000104f780076
:100fa0001e4078000004e000030032006082200050
:100fb0008040eb00014878001e4078000080fa0075
:100fc000000006000000fa00708220001040780047
:100fd0000080fb000080fa00000006000000fa001c
:100fe000708220008040eb00014878000080fa0009
:100ff000000006000000fa0000002300100888002e
:101000000621ef006821ef006a21ef000c21ef00bc
:101010000e21ef007821ef007c21ef007e21ef0010
:101020008021ef008221ef008421ef008621ef0074
:101030007200200080072000a1092000131020006a
:101040008049780081497800824978000001eb00ee
:101050006004200071052000031020008049780002
:1010600081497800824978000080fa00000006007b
:101070000200fa00000f78009e00780021408800ee
:101080000000fe000080fa00000006000000fa00e8
:101090006080200080077800e08120000001880047
:0810a0000080fa0000000600c8
:020000040000fa
:1010a800000800000400000080000000060800009e
:1010b800200000008000000004080000020000007a
:1010c80082000000ffff0000260800000200000068
:0810d800800000000000000090
:020000040000fa
:1010e0000000fa0043fe07000e000700c1ff0700e2
:1010f000b0fe070067ff07000aff07000080fa0044
:1011000000000600809fbe00ec8057003100780090
:10111000004088001100780002e8b7004f00be00d0
:10112000000006000000fa000080fa00000006003f
:020000040000fa
:020000040002f8
:04be0000ffffff0041
:020000040000fa
:020000040002f8
:04be2000ffffff0021
:020000040000fa
:020000040002f8
:04be3000ffffff0011
:020000040000fa
:020000040002f8
:04be380063ffff00a5
:020000040000fa
:020000040002f8
:04be40009fffff0061
:020000040000fa
:020000040002f8
:04be4800ffffff00f9
:020000040000fa
:020000040002f8
:04be5000dfffff0011
:020000040000fa
:020000040002f8
:04be58000000ff00e7
:020000040000fa
:020000040002f8
:04be60000000ff00df
:020000040000fa
:020000040002f8
:04be68000000ff00d7
:020000040000fa
:020000040002f8
:04be70000000ff00cf
:020000040000fa
:020000040002f8
:04be7800ffffff00c9
:020000040000fa
:020000040002f8
:04be8000ffffff00c1
:00000001FF
