:020000040000fa
:080000000001040000000000f3
:020000040000fa
:040008000c020000e6
:020000040000fa
:04000c004e020000a0
:020000040000fa
:040010008e0200005c
:020000040000fa
:040014002c020000ba
:020000040000fa
:040018006e02000074
:020000040000fa
:04001c0004030000d9
:020000040000fa
:04002000ae0200002c
:020000040000fa
:0400240004030000d1
:020000040000fa
:0400280004030000cd
:020000040000fa
:04002c0004030000c9
:020000040000fa
:0400300004030000c5
:020000040000fa
:04003400ce020000f8
:020000040000fa
:0400380004030000bd
:020000040000fa
:04003c0004030000b9
:020000040000fa
:0400400004030000b5
:020000040000fa
:0400440004030000b1
:020000040000fa
:0400480004030000ad
:020000040000fa
:04004c0004030000a9
:020000040000fa
:0400500004030000a5
:020000040000fa
:0400540004030000a1
:020000040000fa
:04005800040300009d
:020000040000fa
:04005c000403000099
:020000040000fa
:040060000403000095
:020000040000fa
:040064000403000091
:020000040000fa
:04006800040300008d
:020000040000fa
:04006c000403000089
:020000040000fa
:040070000403000085
:020000040000fa
:040074000403000081
:020000040000fa
:04007800040300007d
:020000040000fa
:04007c000403000079
:020000040000fa
:040080000403000075
:020000040000fa
:040084000403000071
:020000040000fa
:04008800040300006d
:020000040000fa
:04008c000403000069
:020000040000fa
:040090000403000065
:020000040000fa
:040094000403000061
:020000040000fa
:04009800040300005d
:020000040000fa
:04009c000403000059
:020000040000fa
:0400a0000403000055
:020000040000fa
:0400a4000403000051
:020000040000fa
:0400a800040300004d
:020000040000fa
:0400ac000403000049
:020000040000fa
:0400b0000403000045
:020000040000fa
:0400b4000403000041
:020000040000fa
:0400b800040300003d
:020000040000fa
:0400bc000403000039
:020000040000fa
:0400c0000403000035
:020000040000fa
:0400c4000403000031
:020000040000fa
:0400c800040300002d
:020000040000fa
:0400cc000403000029
:020000040000fa
:0400d0000403000025
:020000040000fa
:0400d4000403000021
:020000040000fa
:0400d800040300001d
:020000040000fa
:0400dc000403000019
:020000040000fa
:0400e0000403000015
:020000040000fa
:0400e4000403000011
:020000040000fa
:0400e800040300000d
:020000040000fa
:0400ec000403000009
:020000040000fa
:0400f0000403000005
:020000040000fa
:0400f4000403000001
:020000040000fa
:0400f80004030000fd
:020000040000fa
:0400fc0004030000f9
:020000040000fa
:0401000004030000f4
:020000040000fa
:0401040004030000f0
:020000040000fa
:0401080004030000ec
:020000040000fa
:04010c0004030000e8
:020000040000fa
:0401100004030000e4
:020000040000fa
:0401140004030000e0
:020000040000fa
:0401180004030000dc
:020000040000fa
:04011c0004030000d8
:020000040000fa
:0401200004030000d4
:020000040000fa
:0401240004030000d0
:020000040000fa
:0401280004030000cc
:020000040000fa
:04012c0004030000c8
:020000040000fa
:0401300004030000c4
:020000040000fa
:0401340004030000c0
:020000040000fa
:0401380004030000bc
:020000040000fa
:04013c0004030000b8
:020000040000fa
:0401400004030000b4
:020000040000fa
:0401440004030000b0
:020000040000fa
:0401480004030000ac
:020000040000fa
:04014c0004030000a8
:020000040000fa
:0401500004030000a4
:020000040000fa
:0401540004030000a0
:020000040000fa
:04015800040300009c
:020000040000fa
:04015c000403000098
:020000040000fa
:040160000403000094
:020000040000fa
:040164000403000090
:020000040000fa
:04016800040300008c
:020000040000fa
:04016c000403000088
:020000040000fa
:040170000403000084
:020000040000fa
:040174000403000080
:020000040000fa
:04017800040300007c
:020000040000fa
:04017c000403000078
:020000040000fa
:040180000403000074
:020000040000fa
:040184000403000070
:020000040000fa
:04018800040300006c
:020000040000fa
:04018c000403000068
:020000040000fa
:040190000403000064
:020000040000fa
:040194000403000060
:020000040000fa
:04019800040300005c
:020000040000fa
:04019c000403000058
:020000040000fa
:0401a0000403000054
:020000040000fa
:0401a4000403000050
:020000040000fa
:0401a800040300004c
:020000040000fa
:0401ac000403000048
:020000040000fa
:0401b0000403000044
:020000040000fa
:0401b4000403000040
:020000040000fa
:0401b800040300003c
:020000040000fa
:0401bc000403000038
:020000040000fa
:0401c0000403000034
:020000040000fa
:0401c4000403000030
:020000040000fa
:0401c800040300002c
:020000040000fa
:0401cc000403000028
:020000040000fa
:0401d0000403000024
:020000040000fa
:0401d4000403000020
:020000040000fa
:0401d800040300001c
:020000040000fa
:0401dc000403000018
:020000040000fa
:0401e0000403000014
:020000040000fa
:0401e4000403000010
:020000040000fa
:0401e800040300000c
:020000040000fa
:0401ec000403000008
:020000040000fa
:0401f0000403000004
:020000040000fa
:0401f4000403000000
:020000040000fa
:0401f80004030000fc
:020000040000fa
:0401fc0004030000f8
:020000040000fa
:100200004f8320000e7f22000e01880000000000b6
:10021000000020000000e000020032000001200089
:100220002002880014000700f90007000000e00029
:1002300003003a00e0a8200001002000020037007f
:100240000000200001002000810f7000010032003a
:1002500014000700000020000000e000020032004f
:1002600000000200000000008606020000000000fe
:100270000040da000000fe004440a90020002000f9
:100280000000e00003003200100020009001880010
:100290004440a800000006008a1f78008b1f7800e9
:1002a00000000600a1028800800478000000eb0036
:1002b0001f003700e284440054a0b4009905ba003e
:1002c000e284440054a0b4009906ba00e2844400d9
:1002d00054a0b4000006eb00476fde00fd07b2003b
:1002e000ae018800636ce10003003a00eaff0700fa
:1002f0000000eb000e003700606ce10008003a00df
:10030000004deb000a05e800020039003420ec0043
:100310000af0a0008b05e900f9ff3e000400370059
:100320006168e100010032000086eb000b0007006d
:1003300019c7ba001905ba000e04e00003003a001c
:100340000a00e000dbff3a0000000600fe07b200f2
:10035000ae0288008a047800f5ff37000cd0a300b5
:10036000e20f4d001c00390089027800354dba00bb
:100370000a05e800020039003420ec000af0a00071
:100380008b05e9000f003200254dba000a05e80090
:10039000020039003420ec000af0a0008b05e900cf
:1003a000080032000c00e0000600320015cdba0053
:1003b0000a05e800020039003420ec000af0a00031
:1003c0008b05e9008984e80054a0b4000b00e0002c
:1003d000e2ff3a00000006009902ba00055d7800cd
:1003e0008b05e900f7ff3200c82ade00055d7800c2
:1003f0008b05e900f3ff32000c00e000f1ff320052
:1004000019ddba00eeff37003809040000000000d3
:100410009c050400000000003600f800809fbe002c
:10042000829fbe00849fbe00869fbe000000fa002f
:100430008020a9000000eb00490407000080fa00ba
:100440004f03be004f02be004f01be004f00be0072
:100450003600f900004006003600f800809fbe001c
:10046000829fbe00849fbe00869fbe000000fa00ef
:10047000400407008040a900100020003804070055
:100480000080fa004f03be004f02be004f01be00c5
:100490004f00be003600f900004006003600f800ac
:1004a000809fbe00829fbe00849fbe00869fbe00cc
:1004b0000000fa008060a900200020002804070046
:1004c0000080fa004f03be004f02be004f01be0085
:1004d0004f00be003600f900004006003600f8006c
:1004e000809fbe00829fbe00849fbe00869fbe008c
:1004f0000000fa008080a9003000200018040700e6
:100500000080fa004f03be004f02be004f01be0044
:100510004f00be003600f900004006003600f8002b
:10052000809fbe00829fbe00849fbe00869fbe004b
:100530000000fa008600a9007000200008040700ef
:100540000080fa004f03be004f02be004f01be0004
:100550004f00be003600f900004006003600f800eb
:10056000809fbe00829fbe00849fbe00869fbe000b
:100570000000fa0085e0a90080002000f8030700d1
:100580000080fa004f03be004f02be004f01be00c4
:100590004f00be003600f900004006003600f800ab
:1005a000809fbe00829fbe00849fbe00869fbe00cb
:1005b0000000fa00804080000000e00002003200ed
:1005c000804080000000010030832000104078004f
:1005d0008040e8003083200001487800208320001c
:1005e00011c0b300014878008860a9000080fa00bb
:1005f0004f03be004f02be004f01be004f00be00c1
:100600003600f900004006000040da000000fe005d
:0406100000000500e1
:020000040000fa
:100614000000fa0083e0a8000000000000000000d1
:100624000080fa00000006000000fa0083e0a90040
:1006340000000000000000000080fa000000060036
:100644000800fa0020079800310798000000eb002a
:10065400000f78003e0090008000eb000108780055
:10066400470037000000eb00100798002e009000b0
:1006740090007800f20020001e0051000008de0007
:1006840061006000100798003e00900010007800a0
:1006940000004000800078003e00900001087800cf
:1006a4003e009000900078001e00900081007000d1
:1006b4003e009000010878003e0090001000780091
:1006c4006f006000e40f5000050036003e0090000b
:1006d40010007800e30040003e009000010878001c
:1006e4003e00900090007800000f200080806000a1
:1006f400f0042000808f5000060036003e00900079
:100704001000780001032000808040003e0090002b
:10071400010878003e0090009000780000f020006e
:1007240080806000f04f2000808f5000060036006b
:100734003e009000100078000130200080804000ce
:100744003e009000010878003e0090009000780080
:1007540000002f0080806000f0ff2400808f500094
:10076400060036003e009000900078000000230050
:10077400808040003e009000010878001e0fe800d1
:100784001e007800ef0f5000b6ff36003e009000c8
:10079400100078006f006000e50f5000050036007f
:1007a4003e00900010007800e30050003e009000ee
:1007b400010878003e00900090007800000f2000af
:1007c4008080600000052000808f50000600360005
:1007d4003e0090001000780001fd2f008080400052
:1007e4003e009000010878003e00900090007800e0
:1007f40000f020008080600000502000808f5000b6
:10080400060036003e0090001000780001d02f0052
:10081400808040003e009000010878003e00900077
:100824009000780000002f00808060000000250008
:10083400808f5000060036003e0090009000780043
:1008440000002d00808040003e00900001087800e8
:100854000080fa00000006000e00fa0000802a0062
:1008640050079800a066a900e40047006a0047000a
:100874000101780021002000c3010700a066a80040
:10088400f000200010079800030037001e009000bd
:100894000000e900100798001e0090000000e0002e
:1008a400faff3a0000902a0050079800a066a900b9
:1008b400e60047006a00470001017800210020009b
:1008c400b1010700a066a8003e0090004800dd00ca
:1008d40030079800be0090002e00900001007000c8
:1008e400400798004e0090000000e00009003d0021
:1008f4004e0090000000e900400798004e00900070
:100904000080ea004007980010002000000f7800e3
:10091400020037000000eb00000f78004e0090004a
:100924004300de0040079800ec00470068004700e1
:1009340043ff07006e009000104088009e0078007e
:10094400214088000080fa00000006000e00fa0032
:1009540000a02a0050079800a066a900e400470000
:100964006a00470001017800210020008601070089
:10097400a066a800f00020001007980003003700cc
:100984001e0090000000e900100798001e0090006f
:100994000000e000faff3a0000b02a005007980077
:1009a400a066a900e60047006a004700010178003c
:1009b4002100200074010700a066a8003e009000fa
:1009c4004800dd0030079800be0090002e00900023
:1009d40001007000400798004e0090000000e00005
:1009e40009003d004e0090000000e9004007980017
:1009f4004e0090000080ea0040079800100020009c
:100a0400000f7800020037000000eb00000f7800b0
:100a14004e0090004300de0040079800ec004700c1
:100a24006800470006ff07006e0090003040880011
:100a34009e007800414088000080fa000000060013
:100a44000e00fa0000c02a0050079800a066a90012
:100a5400e40047006a0047000101780021002000fb
:100a640049010700a066a800f000200010079800c4
:100a7400030037001e0090000000e90010079800f2
:100a84001e0090000000e000faff3a0000d02a00a7
:100a940050079800a066a900e60047006a004700d6
:100aa400010178002100200037010700a066a8009a
:100ab4003e0090004800dd0030079800be00900022
:100ac4002e00900001007000400798004e00900036
:100ad4000000e00009003d004e0090000000e90025
:100ae400400798004e0090000080ea0040079800fc
:100af40010002000000f7800020037000000eb0017
:100b0400000f78004e0090004300de00400798007c
:100b1400ec00470068004700c9fe07006e00900023
:100b2400504088009e007800614088000080fa00f0
:100b3400000006000000fa0047ff070083ff0700db
:100b4400bfff070010002000004088000080fa006a
:100b5400000006002600fa00b3fe07000028ef009c
:100b6400e2004700110009008018eb000002200099
:100b74006007980000022000400f9800a0002000a9
:100b84002017980020408000e10f500003003a0035
:100b9400d00220001007980002003700b0022000a5
:100ba4001007980040408000e10f500003003a0015
:100bb400d00220007007980002003700b002200025
:100bc4007007980060408000e10f500003003a0075
:100bd400d0022000500f980002003700b00220001d
:100be400500f9800104080004c00de000003b0005d
:100bf40020079800104080004800de006f0060006d
:100c04000003b00030079800104080004400de006c
:100c14006f0060000003b00040079800104080009f
:100c24006f0060000003b00050079800304080005f
:100c34004c00de000003b000000f9800304080003c
:100c44004800de006f0060000003b000100f980041
:100c5400304080004400de006f0060000003b000fc
:100c6400200f9800304080006f0060000003b00047
:100c7400300f9800504080004c00de000003b000ac
:100c8400600f9800504080004800de006f00600054
:100c94000003b000700f9800504080004400de0054
:100ca4006f0060000003b0000017980050408000ff
:100cb4006f0060000003b000101798000000eb0004
:100cc400000f78000a003700c90107000004e000a3
:100cd400070032001e0078000000400000004700ba
:100ce4001000900000407800a90107001e0fe800e2
:100cf4001e007800f10f5000f3ff360044fe070099
:100d04000080fa00000006000200fa001f0207003b
:100d1400c05920005801070000202200000f78006d
:100d2400a066a9001e0078008f000700a066a80036
:100d340037fe0700100020000040880085ff0700f0
:100d4400fcff37000000fa00f623ef00f823ef0061
:100d5400fc23ef0030002000202088000824ef004e
:100d64000a24ef000c24ef000e24ef0010462800a4
:100d7400a01f88000080fa00000006000400fa00aa
:100d8400000f78001107980000000000e01f8000a9
:100d9400620060000000e000fcff3a001e007800e2
:100da400100078000020880000000000e11f80008f
:100db40000022000008060000000e000fbff3a0019
:100dc4001e00900001208000010878000080fa00d5
:100dd400000006001800fa00100f9800210f980078
:100de400320f98000000eb00000f78000000eb00c9
:100df400100798000000eb00700798000000eb005b
:100e0400000f980020002000600798002e08900032
:100e14000000d100200f98001e0890000000e000a0
:100e240005003a000000eb005007980070004700ee
:100e34002007980004003700ee0090005107980046
:100e44009e089000210798003e0890000000e000f2
:100e540005003a000000eb00400798006e004700d0
:100e64003007980005003700ee0090004107980015
:100e7400be0890003107980000000000e01f8000c9
:100e8400620060000000e000fcff3a001b00370035
:100e9400e01f8000620060000000e00008003a00eb
:100ea4002e0090001000780000208800ae00900012
:100eb4005e00900000804000200798001e0fe800ac
:100ec400e11f800000022000008060000000e000bc
:100ed4000a003a003e0090000120800001087800da
:100ee400be0090004e009000008040003007980043
:100ef4001e0090000000e800100798002e089000e3
:100f04009e007800808f5000e1ff39000f00370009
:100f1400e11f800000022000008060000000e0006b
:100f24000a003a003e009000012080000108780089
:100f3400be0090004e0090000080400030079800f2
:100f44001e0090000000e800100798009e0090002a
:100f54002e089000808f5000edff39001e007800ad
:100f64000080fa00000006000400fa001007980050
:100f74008e0078000e80e80080ff07001e007800d5
:100f84000080fa00000006000600fa00000f780056
:100f94001107980022079800ae0090001e00780008
:100fa400010178009e0090008aff07000080fa008b
:100fb400000006000000fa00e01f80000080fa0034
:100fc400000006000000fa006426ef007826ef0017
:100fd4008c26ef00a026ef00b426ef00800020004e
:100fe40040368800dc26ef00100020000033880023
:100ff4000080eb00a0338800000027004034880004
:1010040050ff2000e0348800f00f20008035880075
:101014007007200020368800c03c2000c0368800bd
:101024007226ef008626ef009a26ef00ae26ef0028
:10103400c226ef00d626ef00ea26ef007026ef0066
:101044008426ef009826ef00ac26ef00c026ef00c0
:10105400d426ef00e826ef007226ef008626ef0084
:101064009a26ef00ae26ef00c226ef00d626ef0048
:10107400ea26ef007026ef008426ef009826ef00a2
:10108400ac26ef00c026ef00d426ef00e826ef00e0
:101094006626ef007a26ef008e26ef00a226ef00e8
:1010a400b626ef00ca26ef00de26ef00100020006f
:1010b40040338800c0ff2f00e03388000000230085
:1010c4008034880000cc200020358800e001200016
:1010d400c0358800003c20000037880001088000eb
:1010e400f00b2000008160006004200071052000e6
:1010f40003102000804978008149780082497800f3
:10110400313e800000fc2f0000806000e001b3004d
:10111400303e8800f13e8000f00f2800008060001f
:1011240000b0a000f03e8800c13d8000f00f2c000c
:101134008080600000b0200001007000c03d880085
:10114400c13d800000fc2f00008060007001b300ee
:10115400c03d8800213f800000f82f00008060001f
:101164008001b300203f8800613f800000f82f0019
:10117400008060007000b300603f8800513f800031
:1011840000f82f00008060009000b300503f8800fa
:1011940000088000000178000260a00060042000c4
:1011a40071052000031020008049780081497800ef
:1011b400824978000080fa00000006000000fa006e
:1011c4009021ef0070382100900c88000001280065
:1011d400a00c8800804080000000e00002003a007b
:1011e40080932000240007008860a9009860a8006c
:1011f400208320008040eb00014878000080fa0042
:10120400000006000200fa00000f78009e0078003b
:10121400910c8800208320008040eb000148780076
:101224000080fa00000006000000fa00900c800024
:101234000080fa00000006000200fa00000f7800a7
:101244009e007800810c8800208320008040eb0001
:10125400014878000080fa00000006000000fa004f
:10126400800c80000080fa00000006000000fa00f4
:101274000080fa00000006000200fa00000f780067
:101284009860a9009e007800814088009860a800ba
:101294000080fa00000006000000fa00208320000d
:1012a4008040eb00014878009860a80095e1a80010
:1012b4000080fa00000006000000fa0095e1a90091
:1012c4009860a9000080fa00000006000200fa00fd
:1012d40020832000104f78001e4078000004e000b6
:1012e40003003200208320008040eb000148780096
:1012f4001e4078000080fa00000006000000fa009a
:1013040030832000104078000080fb000080fa0049
:10131400000006000000fa00308320008040eb004b
:10132400014878000080fa00000006000000fa007e
:1013340080002000801e8800d223ef007006200069
:10134400c01e8800d1e3a800d343a8000080fa009f
:10135400000006000000fa0000000000901e80005b
:10136400610060000000e000fcff3200901e80007d
:10137400620060000000e00001003200d223a900f6
:10138400b01e8000004078000080fa0000000600d3
:101394000200fa00004f780000000000911e800057
:1013a40000202000008060000000e000fbff3a0005
:1013b4001e80fb00a01e88000080fa0000000600ca
:1013c4000000fa00901e8000004078006140600038
:1013d4000080fb0000f0a7000000ea000000ea0023
:1013e4004f00de00004078000080fa000000060094
:1013f4000000fa00911e80000020200000806000a0
:101404000000e00007003a00911e80000040200028
:10141400008060000000e0000200320010002000a4
:10142400010037000000eb00004078000080fa0063
:10143400000006000000fa00901e80004800de0054
:10144400614060000080fb0000f0a7000000ea009b
:101454000000ea004f00de00004078000080fa003f
:10146400000006000000fa00901e80000080fa00d0
:10147400000006000000fa00d1e3a800d343a8004e
:101484000080fa00000006000000fa00d1e3a90081
:10149400d343a9000080fa00000006000000fa000f
:1014a40000002300100888000621ef006821ef00e7
:1014b4006a21ef000c21ef000e21ef007821ef00ec
:1014c4007c21ef007e21ef008021ef008221ef00dc
:1014d4008421ef008621ef000001eb00800720004b
:1014e400a109200013102000804978008149780068
:1014f400824978000001eb0060042000710520009f
:1015040003102000804978008149780082497800de
:081514000080fa00000006004f
:020000040000fa
:10151c001208000020000000800000000e080000ef
:10152c000200000082000000ffff000032080000f3
:10153c000200000080000000100800000200000003
:10154c0080000000000800000e0000008000000079
:04155c00000000008b
:020000040000fa
:101560000200fa00000f78009e00780071408800a9
:10157000ffff37000000fa0020812000800778007c
:10158000a0822000000188000080fa000000060010
:101590000000fa008cfe0700c1ff070005000700ed
:1015a000e9fd070006ff070061ff07000080fa0061
:1015b000000006000000fa0041058000f0ff28004e
:1015c0000080600000c0a000400588000080fa0094
:0415d0000000060011
:020000040000fa
:020000040002f8
:04be0000ffffff0041
:020000040000fa
:020000040002f8
:04be2000ffffff0021
:020000040000fa
:020000040002f8
:04be300078ffff0098
:020000040000fa
:020000040002f8
:04be3800b7ffff0051
:020000040000fa
:020000040002f8
:04be40009fffff0061
:020000040000fa
:020000040002f8
:04be4800ffffff00f9
:020000040000fa
:020000040002f8
:04be5000dfffff0011
:020000040000fa
:020000040002f8
:04be58000000ff00e7
:020000040000fa
:020000040002f8
:04be60000000ff00df
:020000040000fa
:020000040002f8
:04be68000000ff00d7
:020000040000fa
:020000040002f8
:04be70000000ff00cf
:020000040000fa
:020000040002f8
:04be7800ffffff00c9
:020000040000fa
:020000040002f8
:04be8000ffffff00c1
:00000001FF
