:020000040000fa
:080000000001040000000000f3
:020000040000fa
:0400080004020000ee
:020000040000fa
:04000c0046020000a8
:020000040000fa
:040010008602000064
:020000040000fa
:0400140024020000c2
:020000040000fa
:04001800660200007c
:020000040000fa
:04001c00c602000018
:020000040000fa
:04002000a602000034
:020000040000fa
:04002400c602000010
:020000040000fa
:04002800c60200000c
:020000040000fa
:04002c00c602000008
:020000040000fa
:04003000c602000004
:020000040000fa
:04003400c602000000
:020000040000fa
:04003800c6020000fc
:020000040000fa
:04003c00c6020000f8
:020000040000fa
:04004000c6020000f4
:020000040000fa
:04004400c6020000f0
:020000040000fa
:04004800c6020000ec
:020000040000fa
:04004c00c6020000e8
:020000040000fa
:04005000c6020000e4
:020000040000fa
:04005400c6020000e0
:020000040000fa
:04005800c6020000dc
:020000040000fa
:04005c00c6020000d8
:020000040000fa
:04006000c6020000d4
:020000040000fa
:04006400c6020000d0
:020000040000fa
:04006800c6020000cc
:020000040000fa
:04006c00c6020000c8
:020000040000fa
:04007000c6020000c4
:020000040000fa
:04007400c6020000c0
:020000040000fa
:04007800c6020000bc
:020000040000fa
:04007c00c6020000b8
:020000040000fa
:04008000c6020000b4
:020000040000fa
:04008400c6020000b0
:020000040000fa
:04008800c6020000ac
:020000040000fa
:04008c00c6020000a8
:020000040000fa
:04009000c6020000a4
:020000040000fa
:04009400c6020000a0
:020000040000fa
:04009800c60200009c
:020000040000fa
:04009c00c602000098
:020000040000fa
:0400a000c602000094
:020000040000fa
:0400a400c602000090
:020000040000fa
:0400a800c60200008c
:020000040000fa
:0400ac00c602000088
:020000040000fa
:0400b000c602000084
:020000040000fa
:0400b400c602000080
:020000040000fa
:0400b800c60200007c
:020000040000fa
:0400bc00c602000078
:020000040000fa
:0400c000c602000074
:020000040000fa
:0400c400c602000070
:020000040000fa
:0400c800c60200006c
:020000040000fa
:0400cc00c602000068
:020000040000fa
:0400d000c602000064
:020000040000fa
:0400d400c602000060
:020000040000fa
:0400d800c60200005c
:020000040000fa
:0400dc00c602000058
:020000040000fa
:0400e000c602000054
:020000040000fa
:0400e400c602000050
:020000040000fa
:0400e800c60200004c
:020000040000fa
:0400ec00c602000048
:020000040000fa
:0400f000c602000044
:020000040000fa
:0400f400c602000040
:020000040000fa
:0400f800c60200003c
:020000040000fa
:0400fc00c602000038
:020000040000fa
:04010000c602000033
:020000040000fa
:04010400c60200002f
:020000040000fa
:04010800c60200002b
:020000040000fa
:04010c00c602000027
:020000040000fa
:04011000c602000023
:020000040000fa
:04011400c60200001f
:020000040000fa
:04011800c60200001b
:020000040000fa
:04011c00c602000017
:020000040000fa
:04012000c602000013
:020000040000fa
:04012400c60200000f
:020000040000fa
:04012800c60200000b
:020000040000fa
:04012c00c602000007
:020000040000fa
:04013000c602000003
:020000040000fa
:04013400c6020000ff
:020000040000fa
:04013800c6020000fb
:020000040000fa
:04013c00c6020000f7
:020000040000fa
:04014000c6020000f3
:020000040000fa
:04014400c6020000ef
:020000040000fa
:04014800c6020000eb
:020000040000fa
:04014c00c6020000e7
:020000040000fa
:04015000c6020000e3
:020000040000fa
:04015400c6020000df
:020000040000fa
:04015800c6020000db
:020000040000fa
:04015c00c6020000d7
:020000040000fa
:04016000c6020000d3
:020000040000fa
:04016400c6020000cf
:020000040000fa
:04016800c6020000cb
:020000040000fa
:04016c00c6020000c7
:020000040000fa
:04017000c6020000c3
:020000040000fa
:04017400c6020000bf
:020000040000fa
:04017800c6020000bb
:020000040000fa
:04017c00c6020000b7
:020000040000fa
:04018000c6020000b3
:020000040000fa
:04018400c6020000af
:020000040000fa
:04018800c6020000ab
:020000040000fa
:04018c00c6020000a7
:020000040000fa
:04019000c6020000a3
:020000040000fa
:04019400c60200009f
:020000040000fa
:04019800c60200009b
:020000040000fa
:04019c00c602000097
:020000040000fa
:0401a000c602000093
:020000040000fa
:0401a400c60200008f
:020000040000fa
:0401a800c60200008b
:020000040000fa
:0401ac00c602000087
:020000040000fa
:0401b000c602000083
:020000040000fa
:0401b400c60200007f
:020000040000fa
:0401b800c60200007b
:020000040000fa
:0401bc00c602000077
:020000040000fa
:0401c000c602000073
:020000040000fa
:0401c400c60200006f
:020000040000fa
:0401c800c60200006b
:020000040000fa
:0401cc00c602000067
:020000040000fa
:0401d000c602000063
:020000040000fa
:0401d400c60200005f
:020000040000fa
:0401d800c60200005b
:020000040000fa
:0401dc00c602000057
:020000040000fa
:0401e000c602000053
:020000040000fa
:0401e400c60200004f
:020000040000fa
:0401e800c60200004b
:020000040000fa
:0401ec00c602000047
:020000040000fa
:0401f000c602000043
:020000040000fa
:0401f400c60200003f
:020000040000fa
:0401f800c60200003b
:020000040000fa
:0401fc00c602000037
:020000040000fa
:100200006f8220000e7f22000e0188000000000097
:10021000000020000000e000020032000001200089
:100220002002880014000700da0007000000e00048
:1002300003003a00e07320000100200002003700b4
:100240000000200001002000810f7000010032003a
:1002500014000700000020000000e000020032004f
:100260000000020000000000440502000000000041
:100270000040da000000fe004440a90020052000f4
:100280000000e00003003200002020009001880000
:100290004440a800000006008a1f78008b1f7800e9
:1002a00000000600a1028800800478000000eb0036
:1002b0001f003700e284440054a0b4009905ba003e
:1002c000e284440054a0b4009906ba00e2844400d9
:1002d00054a0b4000006eb00476fde00fd07b2003b
:1002e000ae018800636ce10003003a00eaff0700fa
:1002f0000000eb000e003700606ce10008003a00df
:10030000004deb000a05e800020039003420ec0043
:100310000af0a0008b05e900f9ff3e000400370059
:100320006168e100010032000086eb000b0007006d
:1003300019c7ba001905ba000e04e00003003a001c
:100340000a00e000dbff3a0000000600fe07b200f2
:10035000ae0288008a047800f5ff37000cd0a300b5
:10036000e20f4d001c00390089027800354dba00bb
:100370000a05e800020039003420ec000af0a00071
:100380008b05e9000f003200254dba000a05e80090
:10039000020039003420ec000af0a0008b05e900cf
:1003a000080032000c00e0000600320015cdba0053
:1003b0000a05e800020039003420ec000af0a00031
:1003c0008b05e9008984e80054a0b4000b00e0002c
:1003d000e2ff3a00000006009902ba00055d7800cd
:1003e0008b05e900f7ff3200c82ade00055d7800c2
:1003f0008b05e900f3ff32000c00e000f1ff320052
:1004000019ddba00eeff37003600f800809fbe000d
:10041000829fbe00849fbe00869fbe000000fa003f
:100420008020a9000000eb00860207000080fa008f
:100430004f03be004f02be004f01be004f00be0082
:100440003600f900004006003600f800809fbe002c
:10045000829fbe00849fbe00869fbe000000fa00ff
:100460007f0207008040a9001000200075020700ed
:100470000080fa004f03be004f02be004f01be00d5
:100480004f00be003600f900004006003600f800bc
:10049000809fbe00829fbe00849fbe00869fbe00dc
:1004a0000000fa008060a90020002000650207001b
:1004b0000080fa004f03be004f02be004f01be0095
:1004c0004f00be003600f900004006003600f8007c
:1004d000809fbe00829fbe00849fbe00869fbe009c
:1004e0000000fa008080a9003000200055020700bb
:1004f0000080fa004f03be004f02be004f01be0055
:100500004f00be003600f900004006003600f8003b
:10051000809fbe00829fbe00849fbe00869fbe005b
:100520000000fa008600a9007000200045020700c4
:100530000080fa004f03be004f02be004f01be0014
:100540004f00be003600f900004006003600f800fb
:10055000809fbe00829fbe00849fbe00869fbe001b
:100560000000fa0085e0a9008000200035020700a5
:100570000080fa004f03be004f02be004f01be00d4
:100580004f00be003600f900004006000040da00cf
:100590000000fe0000000500800178000200370026
:1005a000b15978000201e9000200e000fcff3a00c6
:0405b0000000060041
:020000040000fa
:1005b400415400000d0a0000000a00000041000040
:1005c400542b00004d4f0000444500003d540000f2
:1005d40045530000540d00000a00000054000000c0
:1005e4004500000053000000415400002b5400005b
:1005f40045530000543d00005246000043460000ad
:10060400472c000039310000352c0000534600000f
:10061400313000002c310000323500002c31000054
:10062400322c0000313500002c3900002c4f000022
:100634004e2c00004f460000462c00004f460000a0
:10064400460d00000a0000005200000046000000b1
:04065400430000005f
:020000040000fa
:100658004200fa000e80e80052002000a12d280078
:10066800cbff07000000eb00000f780009003700ff
:100678009d010700e10f500006003a000e80e800d7
:100688001e004000104078000000fb007e010700bb
:100698001e0fe8001e007800e30f5000f4ff34003e
:1006a8000000eb00000f780010003700670107001a
:1006b80080407800200220000e0040001e0040000c
:1006c800014878001e0fe800200220000e004000bc
:1006d8001e004000104078000000fb0080007800f9
:1006e800f02d2800808f5000040032001e00780092
:1006f800e80f5000edff3400010037000000000053
:10070800fe609000f0c4b30080cf500006003a00ad
:100718008e689000b0c4b30080cf500002003a0049
:1007280010002000010037000000eb000080fa00f4
:10073800000006004400fa0064004700f2002000b0
:10074800112e280092ff07000000eb00000f780030
:100758001300370064010700e10f500010003a0051
:10076800640047001e004000104078000000fb00b5
:1007780045010700640047001e0040001040780053
:100788000000fb0080007800f02d2800808f5000ca
:1007980002003a0000022000000f78001e0fe80057
:1007a8001e007800ff0f5000eaff34000000eb0045
:1007b800000f7800150037003f010700e10f5000d7
:1007c80007003a002101070080407800400220001d
:1007d8000e0040001e004000014878001e0fe8008f
:1007e800400220000e0040001e004000104078002b
:1007f8000000fb0080007800f02d2800808f50005a
:1008080002003a00e0002000000f78001e00780087
:10081800ec0f5000e8ff34003e6890000000fb0039
:1008280080007800002f2800808f500014003a00c4
:100838004e6890000000fb0080007800202f280000
:10084800808f50000e003a005e6890000000fb00a8
:1008580080007800402f2800808f500008003a0060
:100868006e6890000000fb0080007800002f2800d0
:10087800808f500002003a0010002000010037006d
:100888000000eb00100798003e6890000000fb0095
:1008980080007800002f2800808f500014003a0054
:1008a8004e6890000000fb0080007800202f280090
:1008b800808f50000e003a005e6890000000fb0038
:1008c80080007800402f2800808f500008003a00f0
:1008d8006e6890000000fb0080007800002f280060
:1008e800808f500002003a001000200001003700fd
:1008f8000000eb000080fa0000000600a600fa00e5
:100908000e80e80002032000612f280020ff070066
:100918000000eb00000f780013003700f20007001a
:10092800e10f500010003a000e80e8001e00400061
:10093800104078000000fb00d30007000e80e8009c
:100948001e004000104078000000fb008000780086
:10095800f02d2800808f500002003a00000420008b
:10096800000f78001e0fe800f00320009e007800ba
:10097800808f5000e9ff34000000eb00000f780082
:1009880012003700b10007008040780020042000e2
:100998000e0040001e004000014878001e0fe800cd
:1009a800200420000e0040001e0040001040780087
:1009b8000000fb0080007800f02d2800808f500098
:1009c80002003a0050062000000f78003006200090
:1009d8009e007800808f5000eaff34001ec8900007
:1009e8000000fb008000780060322800808f5000f3
:1009f80014003a002ec890000000fb008000780028
:100a080080322800808f50000e003a003ec89000c7
:100a18000000fb0080007800a0322800808f500082
:100a280008003a004ec890000000fb0080007800e3
:100a380080322800808f500002003a001000200009
:100a4800010037000000eb000080fa0000000600fb
:100a58000600fa00fefe0700000f78001e0078006e
:100a6800e10f500004003a0032ff07001007980019
:100a7800a2ff0700200798000080fa000000060087
:100a88000000fa000e01070066000700f0ff0700eb
:100a9800ffff37000000fa006426ef007826ef0019
:100aa8008c26ef000080200000358800b426ef0077
:100ab800c826ef00dc26ef00100020000033880075
:100ac8000080eb00a0338800000027004034880035
:100ad800f07f2000e0348800f00f20008035880087
:100ae800f007200020368800c03c2000c03688006f
:100af8007226ef008626ef009a26ef00ae26ef005a
:100b0800c226ef00d626ef00ea26ef007026ef0097
:100b18008426ef009826ef00ac26ef00c026ef00f1
:100b2800d426ef00e826ef007226ef008626ef00b5
:100b38009a26ef00ae26ef00c226ef00d626ef0079
:100b4800ea26ef007026ef008426ef009826ef00d3
:100b5800ac26ef00c026ef00d426ef00e826ef0011
:100b68006626ef007a26ef008e26ef00a226ef0019
:100b7800b626ef00ca26ef00de26ef0010002000a0
:100b880040338800c0ff2f00e033880000002300b6
:100b980080348800000c200020358800e001200007
:100ba800c0358800003c200000378800010880001c
:100bb800f00b200000816000600420007105200017
:100bc8000310200080497800814978008249780024
:100bd800013f800000f82f00008060005000b30043
:100be800003f8800b13d800000fc2f0000806000bd
:100bf8003000b300b03d8800000880000001780094
:100c08000260a0006004200071052000031020008d
:100c18008049780081497800824978000080fa008c
:100c2800000006000000fa0080002000701d880007
:100c3800b023ef00001a2000b01d8800afe3a80021
:100c4800b143a8000080fa00000006000000fa0086
:100c580000000000801d8000610060000000e000ce
:100c6800fcff3200801d8000620060000000e00090
:100c780001003200b023a900a01d800000407800c8
:100c88000080fa00000006000200fa00004f780019
:100c980000000000811d800000202000008060000e
:100ca8000000e000fbff3a001e80fb00901d88005a
:100cb8000080fa00000006000000fa00801d800095
:100cc80000407800614060000080fb0000f0a70051
:100cd8000000ea000000ea004f00de000040780053
:100ce8000080fa00000006000000fa00811d800064
:100cf80000202000008060000000e00007003a00ab
:100d0800811d800000402000008060000000e0009d
:100d18000200320010002000010037000000eb0044
:100d2800004078000080fa00000006000000fa0089
:100d3800801d80004800de00614060000080fb00ec
:100d480000f0a7000000ea000000ea004f00de0003
:100d5800004078000080fa00000006000000fa0059
:100d6800801d80000080fa00000006000000fa00e4
:100d7800afe3a800b143a8000080fa000000060015
:100d88000000fa00afe3a900b143a9000080fa000f
:100d9800000006000000fa00000023001008880088
:100da8000621ef006821ef006a21ef000c21ef0017
:100db8000e21ef007821ef007c21ef007e21ef006b
:100dc8008021ef008221ef008421ef008621ef00cf
:100dd8001200200080072000a10920001310200025
:100de8008049780081497800824978001200200003
:100df800600420007105200003102000804978005d
:100e080081497800824978000000000000088000cd
:100e1800610060000000e000fcff3a0000000000f4
:100e28000108800000022000008060000000e0004f
:100e3800fbff32000080fa00000006000200fa0002
:100e4800000f78009e007800214088000000fe0016
:100e58000080fa00000006000000fa006080200010
:100e680080077800e0812000000188000080fa00f7
:040e78000000060070
:020000040000fa
:100e7c0006080000200000008000000004080000ac
:100e8c000200000082000000ffff000000080000cc
:0c0e9c00040000008000000000000000c6
:020000040000fa
:100ea800809fbe00ec805700310078000040880029
:100eb8001100780002e8b7004f00be0000000600ed
:100ec8000000fa00f3fe0700b2ff07000300070066
:100ed80054ff07000080fa00000006000000fa0036
:080ee8000080fa000000060082
:020000040000fa
:020000040002f8
:04be0000ffffff0041
:020000040000fa
:020000040002f8
:04be2000ffffff0021
:020000040000fa
:020000040002f8
:04be300008ffff0008
:020000040000fa
:020000040002f8
:04be380067ffff00a1
:020000040000fa
:020000040002f8
:04be40009fffff0061
:020000040000fa
:020000040002f8
:04be4800ffffff00f9
:020000040000fa
:020000040002f8
:04be5000dfffff0011
:020000040000fa
:020000040002f8
:04be58000000ff00e7
:020000040000fa
:020000040002f8
:04be60000000ff00df
:020000040000fa
:020000040002f8
:04be68000000ff00d7
:020000040000fa
:020000040002f8
:04be70000000ff00cf
:020000040000fa
:020000040002f8
:04be7800ffffff00c9
:020000040000fa
:020000040002f8
:04be8000ffffff00c1
:00000001FF
