:020000040000fa
:080000000001040000000000f3
:020000040000fa
:0400080004020000ee
:020000040000fa
:04000c0046020000a8
:020000040000fa
:040010008602000064
:020000040000fa
:0400140024020000c2
:020000040000fa
:04001800660200007c
:020000040000fa
:04001c00c602000018
:020000040000fa
:04002000a602000034
:020000040000fa
:04002400c602000010
:020000040000fa
:04002800c60200000c
:020000040000fa
:04002c00c602000008
:020000040000fa
:04003000c602000004
:020000040000fa
:04003400c602000000
:020000040000fa
:04003800c6020000fc
:020000040000fa
:04003c00c6020000f8
:020000040000fa
:04004000c6020000f4
:020000040000fa
:04004400c6020000f0
:020000040000fa
:04004800c6020000ec
:020000040000fa
:04004c00c6020000e8
:020000040000fa
:04005000c6020000e4
:020000040000fa
:04005400c6020000e0
:020000040000fa
:04005800c6020000dc
:020000040000fa
:04005c00c6020000d8
:020000040000fa
:04006000c6020000d4
:020000040000fa
:04006400c6020000d0
:020000040000fa
:04006800c6020000cc
:020000040000fa
:04006c00c6020000c8
:020000040000fa
:04007000c6020000c4
:020000040000fa
:04007400c6020000c0
:020000040000fa
:04007800c6020000bc
:020000040000fa
:04007c00c6020000b8
:020000040000fa
:04008000c6020000b4
:020000040000fa
:04008400c6020000b0
:020000040000fa
:04008800c6020000ac
:020000040000fa
:04008c00c6020000a8
:020000040000fa
:04009000c6020000a4
:020000040000fa
:04009400c6020000a0
:020000040000fa
:04009800c60200009c
:020000040000fa
:04009c00c602000098
:020000040000fa
:0400a000c602000094
:020000040000fa
:0400a400c602000090
:020000040000fa
:0400a800c60200008c
:020000040000fa
:0400ac00c602000088
:020000040000fa
:0400b000c602000084
:020000040000fa
:0400b400c602000080
:020000040000fa
:0400b800c60200007c
:020000040000fa
:0400bc00c602000078
:020000040000fa
:0400c000c602000074
:020000040000fa
:0400c400c602000070
:020000040000fa
:0400c800c60200006c
:020000040000fa
:0400cc00c602000068
:020000040000fa
:0400d000c602000064
:020000040000fa
:0400d400c602000060
:020000040000fa
:0400d800c60200005c
:020000040000fa
:0400dc00c602000058
:020000040000fa
:0400e000c602000054
:020000040000fa
:0400e400c602000050
:020000040000fa
:0400e800c60200004c
:020000040000fa
:0400ec00c602000048
:020000040000fa
:0400f000c602000044
:020000040000fa
:0400f400c602000040
:020000040000fa
:0400f800c60200003c
:020000040000fa
:0400fc00c602000038
:020000040000fa
:04010000c602000033
:020000040000fa
:04010400c60200002f
:020000040000fa
:04010800c60200002b
:020000040000fa
:04010c00c602000027
:020000040000fa
:04011000c602000023
:020000040000fa
:04011400c60200001f
:020000040000fa
:04011800c60200001b
:020000040000fa
:04011c00c602000017
:020000040000fa
:04012000c602000013
:020000040000fa
:04012400c60200000f
:020000040000fa
:04012800c60200000b
:020000040000fa
:04012c00c602000007
:020000040000fa
:04013000c602000003
:020000040000fa
:04013400c6020000ff
:020000040000fa
:04013800c6020000fb
:020000040000fa
:04013c00c6020000f7
:020000040000fa
:04014000c6020000f3
:020000040000fa
:04014400c6020000ef
:020000040000fa
:04014800c6020000eb
:020000040000fa
:04014c00c6020000e7
:020000040000fa
:04015000c6020000e3
:020000040000fa
:04015400c6020000df
:020000040000fa
:04015800c6020000db
:020000040000fa
:04015c00c6020000d7
:020000040000fa
:04016000c6020000d3
:020000040000fa
:04016400c6020000cf
:020000040000fa
:04016800c6020000cb
:020000040000fa
:04016c00c6020000c7
:020000040000fa
:04017000c6020000c3
:020000040000fa
:04017400c6020000bf
:020000040000fa
:04017800c6020000bb
:020000040000fa
:04017c00c6020000b7
:020000040000fa
:04018000c6020000b3
:020000040000fa
:04018400c6020000af
:020000040000fa
:04018800c6020000ab
:020000040000fa
:04018c00c6020000a7
:020000040000fa
:04019000c6020000a3
:020000040000fa
:04019400c60200009f
:020000040000fa
:04019800c60200009b
:020000040000fa
:04019c00c602000097
:020000040000fa
:0401a000c602000093
:020000040000fa
:0401a400c60200008f
:020000040000fa
:0401a800c60200008b
:020000040000fa
:0401ac00c602000087
:020000040000fa
:0401b000c602000083
:020000040000fa
:0401b400c60200007f
:020000040000fa
:0401b800c60200007b
:020000040000fa
:0401bc00c602000077
:020000040000fa
:0401c000c602000073
:020000040000fa
:0401c400c60200006f
:020000040000fa
:0401c800c60200006b
:020000040000fa
:0401cc00c602000067
:020000040000fa
:0401d000c602000063
:020000040000fa
:0401d400c60200005f
:020000040000fa
:0401d800c60200005b
:020000040000fa
:0401dc00c602000057
:020000040000fa
:0401e000c602000053
:020000040000fa
:0401e400c60200004f
:020000040000fa
:0401e800c60200004b
:020000040000fa
:0401ec00c602000047
:020000040000fa
:0401f000c602000043
:020000040000fa
:0401f400c60200003f
:020000040000fa
:0401f800c60200003b
:020000040000fa
:0401fc00c602000037
:020000040000fa
:100200006f8220000e7f22000e0188000000000097
:10021000000020000000e000020032000001200089
:100220002002880014000700da0007000000e00048
:1002300003003a00a08220000100200002003700e5
:100240000000200001002000810f7000010032003a
:1002500014000700000020000000e000020032004f
:1002600000000200000000001a060200000000006a
:100270000040da000000fe004440a90040062000d3
:100280000000e00003003200002020009001880000
:100290004440a800000006008a1f78008b1f7800e9
:1002a00000000600a1028800800478000000eb0036
:1002b0001f003700e284440054a0b4009905ba003e
:1002c000e284440054a0b4009906ba00e2844400d9
:1002d00054a0b4000006eb00476fde00fd07b2003b
:1002e000ae018800636ce10003003a00eaff0700fa
:1002f0000000eb000e003700606ce10008003a00df
:10030000004deb000a05e800020039003420ec0043
:100310000af0a0008b05e900f9ff3e000400370059
:100320006168e100010032000086eb000b0007006d
:1003300019c7ba001905ba000e04e00003003a001c
:100340000a00e000dbff3a0000000600fe07b200f2
:10035000ae0288008a047800f5ff37000cd0a300b5
:10036000e20f4d001c00390089027800354dba00bb
:100370000a05e800020039003420ec000af0a00071
:100380008b05e9000f003200254dba000a05e80090
:10039000020039003420ec000af0a0008b05e900cf
:1003a000080032000c00e0000600320015cdba0053
:1003b0000a05e800020039003420ec000af0a00031
:1003c0008b05e9008984e80054a0b4000b00e0002c
:1003d000e2ff3a00000006009902ba00055d7800cd
:1003e0008b05e900f7ff3200c82ade00055d7800c2
:1003f0008b05e900f3ff32000c00e000f1ff320052
:1004000019ddba00eeff37003600f800809fbe000d
:10041000829fbe00849fbe00869fbe000000fa003f
:100420008020a9000000eb00fc0207000080fa0019
:100430004f03be004f02be004f01be004f00be0082
:100440003600f900004006003600f800809fbe002c
:10045000829fbe00849fbe00869fbe000000fa00ff
:10046000f50207008040a90010002000eb02070001
:100470000080fa004f03be004f02be004f01be00d5
:100480004f00be003600f900004006003600f800bc
:10049000809fbe00829fbe00849fbe00869fbe00dc
:1004a0000000fa008060a90020002000db020700a5
:1004b0000080fa004f03be004f02be004f01be0095
:1004c0004f00be003600f900004006003600f8007c
:1004d000809fbe00829fbe00849fbe00869fbe009c
:1004e0000000fa008080a90030002000cb02070045
:1004f0000080fa004f03be004f02be004f01be0055
:100500004f00be003600f900004006003600f8003b
:10051000809fbe00829fbe00849fbe00869fbe005b
:100520000000fa008600a90070002000bb0207004e
:100530000080fa004f03be004f02be004f01be0014
:100540004f00be003600f900004006003600f800fb
:10055000809fbe00829fbe00849fbe00869fbe001b
:100560000000fa0085e0a90080002000ab0207002f
:100570000080fa004f03be004f02be004f01be00d4
:100580004f00be003600f900004006000040da00cf
:100590000000fe0000000500800178000200370026
:1005a000b15978000201e9000200e000fcff3a00c6
:0405b0000000060041
:020000040000fa
:1005b400415400000d0a000000410000542b0000cb
:1005c4004d4f0000444500003d54000045530000d9
:1005d400540d00000a000000415400002b54000098
:1005e40045530000543d00005246000043460000bd
:1005f400472c000039310000352c00005346000020
:10060400313000002c310000323500002c31000064
:10061400322c0000313500002c3900002c4f000032
:100624004e2c00004f460000462c00004f460000b0
:10063400460d00000a000000415400002b54000045
:1006440045530000543d0000545800004c52000033
:1006540053540000522c000022540000686900002a
:100664007349000073410000546500007374000076
:08067400220d00000a00000045
:020000040000fa
:10067c004200fa000e80e80052002000a12d280054
:10068c00c2ff07000000eb00000f780009003700e4
:10069c000a020700e10f500006003a000e80e80045
:1006ac001e004000104078000000fb00eb0107002a
:1006bc001e0fe8001e007800e30f5000f4ff34001a
:1006cc000000eb00000f78000e003700d40107008b
:1006dc0080407800200220000e0040001e004000e8
:1006ec00014878001e0fe8001e00e90000004700da
:1006fc0020609000ea4f500002003a00a000200059
:10070c00000f78001e007800e80f5000efff340057
:10071c00fe609000f0c4b30080cf500006003a0099
:10072c008e689000b0c4b30080cf500002003a0035
:10073c0010c0b300010037000040eb000080fa004d
:10074c00000006004400fa0064004700f20020009c
:10075c00f12d28008dff07000000eb00000f780042
:10076c000d003700640047001e0040001040780068
:10077c000000fb00b9010700640047001e004000a8
:10078c0010407800ea4f500002003a0000022000ae
:10079c00000f78001e0fe8001e007800ff0f5000bd
:1007ac00f0ff34000000eb00000f78000e00370063
:1007bc009b01070080407800400220000e004000a2
:1007cc001e004000014878001e0fe8001e00e900e2
:1007dc000000470040609000ea4f500002003a00d1
:1007ec00e0002000000f78001e007800ec0f500095
:1007fc00efff3400be68900040c5b30080cf5000be
:10080c000e003a00ce68900050c4b30080cf500068
:10081c000a003a00de68900030c5b30080cf50006b
:10082c0006003a00ee68900040c5b30080cf50003f
:10083c0002003a0010002000010037000000eb001d
:10084c0010079800be68900040c5b30080cf5000e0
:10085c000e003a00ce68900050c4b30080cf500018
:10086c000a003a00de68900030c5b30080cf50001b
:10087c0006003a00ee68900040c5b30080cf5000ef
:10088c0002003a0010c0b300010037000040eb003a
:10089c000080fa0000000600a800fa00640047007f
:1008ac0002032000e12e280038ff07000000eb00b7
:1008bc00000f78001000370080010700e10f500096
:1008cc000d003a00640047001e0040001040780004
:1008dc000000fb0061010700640047001e0040009f
:1008ec0010407800ea4f500002003a00000420004b
:1008fc00000f78001e0fe800f00320009e00780027
:10090c00808f5000ecff34000000eb00000f7800eb
:10091c000e003700420107008040780040042000a0
:10092c000e0040001e004000014878001e0fe80039
:10093c001e00e9000000470040c09000ea4f500044
:10094c0002003a0030062000000f7800a0052000bd
:10095c009e007800808f5000eeff3400bec89000df
:10096c0020c5b30080cf50000e003a00cec89000d6
:10097c0060c4b30080cf50000a003a00dec890007b
:10098c0030c4b30080cf500006003a00eec890008f
:10099c0060c4b30080cf500002003a001000200069
:1009ac00010037000000eb0010079800bec8900053
:1009bc0020c5b30080cf50000e003a00cec8900086
:1009cc0060c4b30080cf50000a003a00dec890002b
:1009dc0030c4b30080cf500006003a00eec890003f
:1009ec0060c4b30080cf500002003a0010c0b300c6
:1009fc00010037000040eb000080fa000000060008
:100a0c000c01fa006400470002022000e1312800ca
:100a1c00defe07000000eb00000f7800100037002e
:100a2c0026010700e10f50000d003a00640047005a
:100a3c001e004000104078000000fb00070107007a
:100a4c00640047001e00400010407800ea4f500040
:100a5c0002003a0010042000000f78001e0fe8007e
:100a6c00f00320009e007800808f5000ecff3400d3
:100a7c000000eb00000f78000e003700e8000700c4
:100a8c0080407800400420000e0040001e00400012
:100a9c00014878001e0fe8001e00e9000000470026
:100aac0040c09000ea4f500002003a00300620008f
:100abc00000f7800a00520009e007800808f500069
:100acc00eeff34000000eb00000f78000e00370042
:100adc00d300070080407800800a20000e00400000
:100aec001e004000014878001e0fe8001e00e900bf
:100afc000000470000689100ea4f500002003a00e5
:100b0c0030062000000f7800a00520009e00780021
:100b1c00808f5000eeff3400ae70910040c4b300e3
:100b2c0080cf50000e003a00be709100f0c4b300ac
:100b3c0080cf50000a003a00ce709100e0c4b300a0
:100b4c0080cf500006003a00de70910050c4b30014
:100b5c0080cf500002003a00100020000100370046
:100b6c000000eb0010079800ae70910040c4b30079
:100b7c0080cf50000e003a00be709100f0c4b3005c
:100b8c0080cf50000a003a00ce709100e0c4b30050
:100b9c0080cf500006003a00de70910050c4b300c4
:100bac0080cf500002003a0010c0b30001003700a3
:100bbc000040eb000080fa00000006000a00fa007a
:100bcc00abfe07000080fb00200798002e00900071
:100bdc00e10f500006003a00dafe07000080fb002f
:100bec00000f78002cff07000080fb001007980016
:100bfc001e0090000000e000050032001e0078008e
:100c0c000000e0000200320010002000010037005c
:100c1c000000eb00300798000000eb004007980044
:100c2c000080fa00000006000400fa001901070019
:100c3c0071000700e1ff07000040eb00204798001f
:100c4c006fff0700204798000000eb00000f7800b2
:100c5c00010037001e0fe8001e007800e10f400075
:100c6c00fcff3a00f6ff37000000fa006426ef00a4
:100c7c007826ef008c26ef000080200000358800dd
:100c8c00b426ef00c826ef00dc26ef001000200091
:100c9c00003388000080eb00a033880000002700a0
:100cac0040348800f07f2000e0348800f00f2000f2
:100cbc0080358800f007200020368800c03c2000da
:100ccc00c03688007226ef008626ef009a26ef00c9
:100cdc00ae26ef00c226ef00d626ef00ea26ef0084
:100cec007026ef008426ef009826ef00ac26ef006c
:100cfc00c026ef00d426ef00e826ef007226ef00a6
:100d0c008626ef009a26ef00ae26ef00c226ef00f3
:100d1c00d626ef00ea26ef007026ef008426ef00bf
:100d2c009826ef00ac26ef00c026ef00d426ef008b
:100d3c00e826ef006626ef007a26ef008e26ef00fd
:100d4c00a226ef00b626ef00ca26ef00de26ef0043
:100d5c001000200040338800c0ff2f00e0338800d3
:100d6c000000230080348800000c2000203588000f
:100d7c00e0012000c0358800003c200000378800ce
:100d8c0001088000f00b200000816000600420004e
:100d9c0071052000031020008049780081497800fb
:100dac0082497800013f800000f82f00008060002d
:100dbc005000b300003f8800b13d800000fc2f00c4
:100dcc00008060003000b300b03d88000008800057
:100ddc00000178000260a000600420007105200072
:100dec0003102000804978008149780082497800fe
:100dfc000080fa00000006000000fa0080002000cd
:100e0c00701d8800b023ef00001a2000b01d880070
:100e1c00afe3a800b143a8000080fa000000060070
:100e2c000000fa0000000000801d800061006000de
:100e3c000000e000fcff3200801d800062006000ba
:100e4c000000e00001003200b023a900a01d8000ca
:100e5c00004078000080fa00000006000200fa0052
:100e6c00004f780000000000811d80000020200051
:100e7c00008060000000e000fbff3a001e80fb00d9
:100e8c00901d88000080fa00000006000000fa00a7
:100e9c00801d800000407800614060000080fb00f5
:100eac0000f0a7000000ea000000ea004f00de009e
:100ebc00004078000080fa00000006000000fa00f4
:100ecc00811d800000202000008060000000e000f8
:100edc0007003a00811d8000004020000080600067
:100eec000000e0000200320010002000010037007a
:100efc000000eb00004078000080fa0000000600c3
:100f0c000000fa00801d80004800de006140600097
:100f1c000080fb0000f0a7000000ea000000ea00df
:100f2c004f00de00004078000080fa000000060050
:100f3c000000fa00801d80000080fa00000006000e
:100f4c000000fa00afe3a800b143a8000080fa004b
:100f5c00000006000000fa00afe3a900b143a900ad
:100f6c000080fa00000006000000fa0000002300d8
:100f7c00100888000621ef006821ef006a21ef00bd
:100f8c000c21ef000e21ef007821ef007c21ef0007
:100f9c007e21ef008021ef008221ef008421ef0001
:100fac008621ef001200200080072000a1092000fc
:100fbc00131020008049780081497800824978001c
:100fcc001200200060042000710520000310200096
:100fdc00804978008149780082497800000000003f
:100fec0000088000610060000000e000fcff3a0097
:100ffc00000000000108800000022000008060005a
:10100c000000e000fbff32000080fa000000060048
:10101c000200fa00000f78009e0078002140880042
:10102c000000fe000080fa00000006000000fa003c
:10103c006080200080077800e0812000000188009b
:08104c000080fa00000006001c
:020000040000fa
:1010540006080000200000008000000004080000d2
:101064000200000082000000ffff000000080000f2
:0c107400040000008000000000000000ec
:020000040000fa
:10108000809fbe00ec80570031007800004088004f
:101090001100780002e8b7004f00be000000060013
:1010a0000000fa00f3fe0700b2ff0700030007008c
:1010b00054ff07000080fa00000006000000fa005c
:0810c0000080fa0000000600a8
:020000040000fa
:020000040002f8
:04be0000ffffff0041
:020000040000fa
:020000040002f8
:04be2000ffffff0021
:020000040000fa
:020000040002f8
:04be300008ffff0008
:020000040000fa
:020000040002f8
:04be380067ffff00a1
:020000040000fa
:020000040002f8
:04be40009fffff0061
:020000040000fa
:020000040002f8
:04be4800ffffff00f9
:020000040000fa
:020000040002f8
:04be5000dfffff0011
:020000040000fa
:020000040002f8
:04be58000000ff00e7
:020000040000fa
:020000040002f8
:04be60000000ff00df
:020000040000fa
:020000040002f8
:04be68000000ff00d7
:020000040000fa
:020000040002f8
:04be70000000ff00cf
:020000040000fa
:020000040002f8
:04be7800ffffff00c9
:020000040000fa
:020000040002f8
:04be8000ffffff00c1
:00000001FF
